:060000000A128A11612FB3
:100EC20083010A128A11AE2F0130831603138600A2
:100ED2008312031386010800831203178D01831600
:100EE20003178C130C14831203170C080800F0006C
:100EF200831203178D0170088C00831603178C135D
:100F02000C158B1355308D00AA308D008C148B1765
:100F12008A2F8C188D2F8E2F8A2F0C1108000030EB
:100F2200F0000030F100C33071025030031970023A
:100F3200031C9C2F9D2F9E2FAD2F0130F00703180D
:100F4200F10A0030F107C330710250300319700208
:100F5200031CAC2FAD2F9E2F08000A128A116527A1
:100F62000A128A110310003003180130F4000A1229
:100F72008A116D270A128A11F2007208F400831294
:100F8200031386010130F200740AC92F0310F20D17
:100F9200FF3E031DC72F7208F300730886040A126E
:100FA2008A1190270A128A11831203130618DA2F64
:100FB200DB2FF12FDC2F061CDF2FE02FDC2F01307F
:100FC200F2007208F40774080A128A1178270A12CA
:100FD2008A11EB2F83120313061CF02FF12FEB2F34
:100FE2007408083A031DF62FF72FFC2F0310003068
:0E0FF20003180130F400C02F0A128A110028E3
:02400E00723FFF
:00000001FF
