:060000000A128A1110280B
:10000800FE000308F1000408F2000A08F3007F0864
:10001800F4000A128A11042E0A128A11A22F003043
:100028008A000408840A8207003467347034733401
:1000380020346C346F3463346134743469346F340D
:100048006E3400344D34733467342034733465347B
:100058006E34643469346E34673400344134543453
:100068002B3443344D34473446343D343134003432
:10007800573445344C3443344F344D3445340034CC
:10008800673470347334003441345434003480306D
:10009800831603139F004030831203139F000F3011
:1000A8008316031385008312031385018316031334
:1000B80086018312031386018316031388018312B2
:1000C80003138801803083160313870083120313F8
:1000D80087010A128A117D270A128A11F430F50065
:1000E8000130F6000A128A11C5270A128A110A126B
:1000F8008A11D7270A128A115030F500C330F6004A
:100108000A128A11C5270A128A116430F5000030D4
:10011800F6000A128A11C5270A128A1180300A12BB
:100128008A11C2260A128A1101300A128A11C226BD
:100138000A128A1124300A128A1127270A128A11F0
:100148005030F500C330F6000A128A11C5270A128A
:100158008A115030F500C330F6000A128A11C527FB
:100168000A128A115030F500C330F6000A128A11BB
:10017800C5270A128A11831203139F121F129F1197
:100188001F145830F5000230F6000A128A11C527EC
:100198000A128A11831203131F0804389F0058306B
:1001A800F5000230F6000A128A11C5270A128A11D0
:1001B800831203131E08BE00BF010830FE0003109F
:1001C800BE0DBF0DFE0BE3283E08B0003F08B1008E
:1001D8005830F5000230F6000A128A11C5270A12B3
:1001E8008A11831603131E08831203133007B00005
:1001F80031080318310AB1005830F5000230F60012
:100208000A128A11C5270A128A115830F5000230DD
:10021800F6000A128A11C5270A128A11E8308312D9
:100228000313B7000330B8003108BA01BA07300821
:10023800B901B9070A128A11B9250A128A1183125B
:1002480003133808A101A1073708A001A007E83067
:10025800B7000330B8003108BA01BA073008B9014D
:10026800B9070A128A114D260A128A11831203133A
:100278003808A301A3073708A201A2076430B70012
:100288000030B8002308BA01BA072208B901B90733
:100298000A128A11B9250A128A118312031338081F
:1002A800A501A5073708A401A4076430B7000030EA
:1002B800B8002308BA01BA072208B901B9070A1217
:1002C8008A114D260A128A11831203133808A701CE
:1002D800A7073708A601A6070A30B7000030B800FC
:1002E8002708BA01BA072608B901B9070A128A11FC
:1002F800B9250A128A11831203133808A901A9071C
:100308003708A801A8070A30B7000030B800270846
:10031800BA01BA072608B901B9070A128A114D2687
:100328000A128A11831203133808AB01AB07370886
:10033800AA01AA0780300A128A11C2260A128A1153
:10034800831203132008303E0A128A118C260A12DF
:100358008A118830F5001330F6000A128A11C52771
:100368000A128A11831203132408303E0A128A11D2
:100378008C260A128A118830F5001330F6000A120A
:100388008A11C5270A128A11831203132808303EDE
:100398000A128A118C260A128A118830F500133045
:1003A800F6000A128A11C5270A128A11831203134A
:1003B8002A08303E0A128A118C260A128A118830BD
:1003C800F5001330F6000A128A11C5270A128A119D
:1003D8008312031333083204031DF329F429332A43
:1003E80001303102F43003193002031CFC29FD29C5
:1003F800332A0130B2000030B3003408013EB400A3
:1004080035080318013E003EB500C0300A128A11B3
:10041800C2260A128A11831203133408303E0A12C4
:100428008A118C260A128A115030F500C330F60062
:100438000A128A11C5270A128A115030F500C330F2
:10044800F6000A128A11C5270A128A115030F500DF
:10045800C330F6000A128A11C5270A128A11013020
:10046800831203133102F5300319300203183D2AB1
:100478003E2A422A0030B2000030B3000030350274
:10048800033003193402031C4A2A4B2A212B50300B
:10049800F500C330F6000A128A11C5270A128A111C
:1004A8005030F500C330F6000A128A11C5270A1227
:1004B8008A115030F500C330F6000A128A11C52798
:1004C8000A128A115030F500C330F6000A128A1158
:1004D800C5270A128A11003083120313B4000030B2
:1004E800B50001300A128A11C2260A128A11803018
:1004F8000A128A11C2260A128A110E300A128A11A9
:1005080027270A128A115030F500C330F6000A1264
:100518008A11C5270A128A115030F500C330F60037
:100528000A128A11C5270A128A1130300A128A1152
:10053800F8260A128A110D300A128A11E8270A12BF
:100548008A116030F500EA30F6000A128A11C527D0
:100558000A128A116030F500EA30F6000A128A1190
:10056800C5270A128A110A300A128A11E8270A12C4
:100578008A111030F5002730F6000A128A11C527B3
:100588000A128A111030F5002730F6000A128A1173
:10059800C5270A128A111A300A128A11F8260A1275
:1005A8008A110D300A128A11E8270A128A1160305E
:1005B800F500EA30F6000A128A11C5270A128A11D4
:1005C8006030F500EA30F6000A128A11C5270A12CF
:1005D8008A110A300A128A11E8270A128A11103081
:1005E800F5002730F6000A128A11C5270A128A1167
:1005F8005030F500C330F6000A128A11C5270A12D6
:100608008A110A128A11B1240A128A115030F5008F
:10061800C330F6000A128A11C5270A128A1150300F
:10062800F500C330F6000A128A11C5270A128A118A
:100638000A128A113D230A128A1101300A128A11FC
:10064800C2260A128A115030F500C330F6000A1289
:100658008A11C5270A128A115030F500C330F600F6
:100668000A128A11C5270A128A11BF280A128A118A
:10067800102841300A128A11E8270A128A115430C8
:100688000A128A11E8270A128A112B300A128A11D3
:10069800E8270A128A1143300A128A11E8270A1237
:1006A8008A114D300A128A11E8270A128A11473036
:1006B8000A128A11E8270A128A1153300A128A117B
:1006C800E8270A128A113D300A128A11E8270A120D
:1006D8008A1122300A128A11E8270A128A1139303F
:1006E8000A128A11E8270A128A1137300A128A1167
:1006F800E8270A128A1135300A128A11E8270A12E5
:100708008A1131300A128A11E8270A128A11353003
:100718000A128A11E8270A128A1130300A128A113D
:10072800E8270A128A1135300A128A11E8270A12B4
:100738008A1137300A128A11E8270A128A113030D2
:100748000A128A11E8270A128A1136300A128A1107
:10075800E8270A128A1122300A128A11E8270A1297
:100768008A110D300A128A11E8270A128A111030EC
:10077800F5002730F6000A128A11C5270A128A11D5
:100788000A300A128A11E8270A128A115830F5002D
:100798000230F6000A128A11C5270A128A11583047
:1007A800F5000230F6000A128A11C5270A128A11CA
:1007B80001300A128A1152270A128A1180300A124D
:1007C8008A11C2260A128A11E830F5000330F600B1
:1007D8000A128A11C5270A128A11103083120313CC
:1007E800AE000030AF0000302F021C3003192E027B
:1007F800031CFF2B002C012C252C2E08A03E840066
:1008080083130008BA003A08C00040089900103065
:10081800F5002730F6000A128A11C5270A128A1134
:10082800013083120313AE070318AF0A0030AF0775
:1008380000302F021C3003192E02031C242C252CF7
:10084800012CC0300A128A11C2260A128A111E30DF
:1008580083120313AE000030AF0000302F0229309E
:1008680003192E02031C392C3A2C3B2C5F2C2E0822
:10087800A03E840083130008BA003A08C00040086C
:1008880099001030F5002730F6000A128A11C527A2
:100898000A128A11013083120313AE070318AF0A34
:1008A8000030AF0700302F02293003192E02031C35
:1008B8005E2C5F2C3B2C5830F5000230F6000A12F3
:1008C8008A11C5270A128A110D300A128A11E827DF
:1008D8000A128A116030F500EA30F6000A128A110D
:1008E800C5270A128A110A300A128A11E8270A1241
:1008F8008A111030F5002730F6000A128A11C52730
:100908000A128A111A300A128A11E8270A128A1161
:100918005030F500C330F6000A128A11C5270A12B2
:100928008A115030F500C330F6000A128A11C52723
:100938000A128A115030F500C330F6000A128A11E3
:10094800C5270A128A115030F500C330F6000A1282
:100958008A11C5270A128A11080001300A128A1161
:10096800C2260A128A1187300A128A11C2260A126E
:100978008A116430F5000030F6000A128A11C52782
:100988000A128A112C300A128A1127270A128A1190
:100998005030F500C330F6000A128A11C5270A1232
:1009A8008A115030F500C330F6000A128A11C527A3
:1009B8000A128A1101300A128A11C2260A128A11F1
:1009C8006430F5000030F6000A128A11C5270A12B1
:1009D8008A110030831203132D022C3003192C02C4
:1009E800031CF72CF82CB82D80300A128A11C22665
:1009F8000A128A11E830F5000330F6000A128A114B
:100A0800C5270A128A11103083120313AE00003072
:100A1800AF0000302F021C3003192E02031C152DC5
:100A2800162D172D3F2D2E08A03E84008313000895
:100A3800BD003D08C00040080A128A118C260A121F
:100A48008A115830F5000230F6000A128A11C527BB
:100A58000A128A11013083120313AE070318AF0A72
:100A68000030AF0700302F021C3003192E02031C80
:100A78003E2D3F2D172DC0300A128A11C2260A12A8
:100A88008A111E3083120313AE000030AF0000300D
:100A98002F02293003192E02031C532D542D552DD6
:100AA8007D2D2E08A03E840083130008BD003D085C
:100AB800C00040080A128A118C260A128A1158307E
:100AC800F5000230F6000A128A11C5270A128A11A7
:100AD800013083120313AE070318AF0A0030AF07C3
:100AE80000302F02293003192E02031C7C2D7D2D86
:100AF800552D5030F500C330F6000A128A11C5276B
:100B08000A128A115030F500C330F6000A128A1111
:100B1800C5270A128A115030F500C330F6000A12B0
:100B28008A11C5270A128A115030F500C330F60021
:100B38000A128A11C5270A128A11031000300318F5
:100B4800013083120313B600C1010314C10D003034
:100B5800AC000030AD00B830F5008830F6000A125D
:100B68008A11C5270A128A1108000030831203135C
:100B7800BC000030BD00380837040319C42DC52D4A
:100B8800FD2DBB010314BB0DD42D01300310B70D8F
:100B9800B80DFF3E031DCA2D0130F5007508BB07CF
:100BA800B81FD72DD82DC92D01300310BC0DBD0D90
:100BB800FF3E031DD92D38083A02031DE52D3708DD
:100BC8003902031CE82DE92DF02D3708B902380841
:100BD800031CBA03BA023C1401300310B80CB70C5A
:100BE800FF3E031DF12D0130BB02031DFC2DFD2D21
:100BF800D82D3D08B801B8073C08B701B707080069
:100C0800831203138C1E092E0A2E422E8C121A08E8
:100C1800F0007008C0004008523A031D142E152E2B
:100C2800232E4108013A031D1A2E1B2E232EB6012E
:100C38000314B60D0310003003180130C100360844
:100C4800013A031D282E292E422E00302D022D3068
:100C580003192C020318312E322E422E4008F000C0
:100C68002C08A03E84007008831380002C08013EE5
:100C7800AC002D080318013E003EAD007408FF00CB
:100C880073088A007208840071088300FE0E7E0EC5
:100C9800090083120313380837040319542E552EFC
:100CA800852EF6010314F60D642E01300310B70DDE
:100CB800B80DFF3E031D5A2E0130F5007508F607E2
:100CC800B81F672E682E592E38083A02031D6E2E5B
:100CD80037083902031C712E722E782E3708B90294
:100CE8003808031CBA03BA0201300310B80CB70C59
:100CF800FF3E031D792E0130F602031D842E852E3A
:100D0800682E3A08B801B8073908B701B7070800CC
:100D180083120313B9003908F039880088140811C0
:100D28008815C830F5000030F6000A128A11C52768
:100D38000A128A118312031388113908B700B801FF
:100D48000430FE000310B70DB80DFE0BA62E3708B1
:100D5800F7003808F8007708F03988008814081177
:100D68008815C830F5000030F6000A128A11C52728
:100D78000A128A11831203138811080083120313BD
:100D8800B9003908F0398800881008118815C8306A
:100D9800F5000030F6000A128A11C5270A128A11D6
:100DA8008312031388113908B700B8010430FE0014
:100DB8000310B70DB80DFE0BDC2E3708F700380806
:100DC800F8007708F0398800881008118815C830AD
:100DD800F5000030F6000A128A11C5270A128A1196
:100DE800831203138811080083120313B800031039
:100DF800003003180130B900192F3908380784006A
:100E08000A128A1113200A128A1199002030F5005B
:100E18004E30F6000A128A11C5270A128A110130CB
:100E280083120313B7003708B90739083807840055
:100E38000A128A1113200A128A110038031D252F5D
:100E4800262F012F080083120313BA000030BB00BD
:100E58000030BC00442F3B083A0784000A128A116C
:100E680013200A128A110A128A118C260A128A1170
:100E7800013083120313BB070318BC0A0030BC07F8
:100E88003B083A0784000A128A1113200A128A11B1
:100E98000038031D502F512F2F2F080083120313E2
:100EA800B7000030B8000030B9006F2F5B2F0C1E60
:100EB8005E2F5F2F5B2F98103808370784000A12BF
:100EC8008A1113200A128A1199000130B8070318F1
:100ED800B90A0030B9073808370784000A128A119E
:100EE80013200A128A110038031D7B2F7C2F5A2FDA
:100EF800080002300A128A11C2260A128A112C30FE
:100F08000A128A11C2260A128A1106300A128A1196
:100F1800C2260A128A1101300A128A11C2260A123E
:100F28008A110C300A128A11C2260A128A118030DC
:100F38000A128A11C2260A128A110800F701F8015A
:100F480083132030840037300A128A11F4270A12DA
:100F58008A11A0308400D2300A128A11F4270A12AA
:100F68008A110A128A11FC270A128A11C0000A1271
:100F78008A11FD270A128A11C10083010A128A11F7
:100F88004B28C62F0130F5020030031CF603F60289
:100F9800FF307606031DD22FFF307506031DD52FAF
:100FA800D62FC62F080024308316031398009030DC
:100FB8008312031398001930831603139900181528
:100FC8008B170B178C160800F500EA2F83120313F2
:100FD8000C1EEF2FF02FEA2F9810750899000800C3
:100FE80064008001840A0406031900340406F52FFE
:040FF8003734013455
:02400E00723FFF
:00000001FF
