:100000000A128A11592E00308A000408840A8207D5
:100010000034533445345234493441344C34203460
:1000200043344F344D344D3455344E3449344334D5
:100030004134543449344F344E3400344134543410
:100040002B3443344D34473453343D34383437340F
:100050003734383437343534333439343434303455
:100060000034413454342B3443344D344734463413
:100070003D3431340034573445344C3443344F34F8
:0C0080004D344534003441345434003415
:100CB20083010A128A11592F5E2E0130F002003090
:100CC200031CF103F102FF307106031D6A2EFF308F
:100CD2007006031D6D2E6E2E5E2E080002300A1263
:100CE2008A11ED260A128A112C300A128A11ED2677
:100CF2000A128A1106300A128A11ED260A128A1184
:100D020001300A128A11ED260A128A110C300A12D7
:100D12008A11ED260A128A1180300A128A11ED26F2
:100D22000A128A110800F9000030F7000030F800BA
:100D3200AD2E7708790784000A128A1103200A125D
:100D42008A110A128A1123270A128A110130F7071F
:100D52000318F80A0030F8077708790784000A12A6
:100D62008A1103200A128A110038031DB92EBA2EE5
:100D72009A2E0800F4000030F2000030F300DB2E5F
:100D82007208740784000A128A1103200A128A1157
:100D92008312031399002030F0004E30F1000A1242
:100DA2008A115D260A128A110130F2070318F30A2A
:100DB2000030F3077208740784000A128A110320B4
:100DC2000A128A110038031DE72EE82EC12E1D30AB
:100DD2008312031399000800F6007608F039831293
:100DE20003138800881008118815C830F0000030FD
:100DF200F1000A128A115D260A128A118312031364
:100E020088117608F200F3010430FE000310F20D9F
:100E1200F30DFE0B072F7208F4007308F500740837
:100E2200F0398800881008118815C830F0000030A9
:100E3200F1000A128A115D260A128A118312031323
:100E420088110800F6007608F0398312031388002F
:100E5200881408118815C830F0000030F1000A1219
:100E62008A115D260A128A118312031388117608E9
:100E7200F200F3010430FE000310F20DF30DFE0B3D
:100E82003D2F7208F4007308F5007408F0398800E9
:100E9200881408118815C830F0000030F1000A12D9
:100EA2008A115D260A128A1183120313881108001F
:100EB2008316031387018312031387018316031317
:100EC20088018312031388012430831603139800C8
:100ED200903083120313980019308316031399007C
:100EE2000A128A116F260A128A11F430F0000130B8
:100EF200F1000A128A115D260A128A1180300A1242
:100F02008A11ED260A128A1133300A128A119426A6
:100F12000A128A115030F000C330F1000A128A110D
:100F22005D260A128A1183120313061C992F9A2F27
:100F3200FC2F3B300A128A11BB260A128A1150304A
:100F4200F000C330F1000A128A115D260A128A11DA
:100F52000D308312031399005030F000C330F100BA
:100F62000A128A115D260A128A1129300A128A117E
:100F7200BB260A128A110D308312031399005030D6
:100F8200F000C330F1000A128A115D260A128A119A
:100F920016300A128A11BB260A128A110D308312E8
:100FA200031399005030F000C330F1000A128A1185
:100FB2005D260A128A110D30831203139900013043
:100FC2000A128A11BB260A128A115030F000C3306D
:100FD200F1000A128A115D260A128A111A3083124E
:100FE200031399005030F000C330F1000A128A1145
:0E0FF2005D260A128A11942F0A128A11002815
:02400E00723FFF
:00000001FF
