:060000000A128A11672EAE
:100C60007E088A007F08820030260A128A118000DE
:100C7000840A04087D0603190034FF0A0319FE0ADA
:100C8000342E422E0130F0020030031CF103F10239
:100C9000FF307106031D4E2EFF307006031D512ECE
:100CA000522E422E08003F340034063400345B34A8
:100CB00000344F340034663400346D3400347D34F5
:100CC0000034073400347F3400346F340034FA01C8
:100CD000FB01FC01FD01B401B50183133430FD00BB
:100CE0000630FE005330FF00203084000A128A11C3
:100CF00034260A128A1183010A128A114F2F031017
:100D0000003003180130F600F31F872E882E902E36
:100D1000F209F309F20A0319F30AF6010314F60DB6
:100D2000F11F932E942E992EF009F109F00A031960
:100D3000F10A7108700403199E2E9F2ECF2EF50123
:100D40000314F50DAE2E01300310F00DF10DFF3E32
:100D5000031DA42E0130F4007408F507F11FB12E15
:100D6000B22EA32E71087302031DB82E70087202F2
:100D7000031CBB2EBC2EC22E7008F2027108031C8D
:100D8000F303F30201300310F10CF00CFF3E031DDE
:100D9000C32E0130F502031DCE2ECF2EB22E7608C3
:100DA000031DD32ED82EF209F309F20A0319F30A10
:100DB0007308F101F1077208F001F0070800031051
:100DC000003003180130F600F11FE72EE82EF02E58
:100DD000F009F109F00A0319F10AF6010314F60DFE
:100DE000F31FF32EF42EFD2EF209F309F20A031974
:100DF000F30A0130F4007408F6060030F700003002
:100E0000F800710870040319062F072F3F2FF50112
:100E10000314F50D162F01300310F00DF10DFF3EF8
:100E2000031D0C2F0130F4007408F507F11F192F72
:100E30001A2F0B2F01300310F70DF80DFF3E031D85
:100E40001B2F71087302031D272F70087202031CE9
:100E50002A2F2B2F322F7008F2027108031CF30384
:100E6000F302771401300310F10CF00CFF3E031D68
:100E7000332F0130F502031D3E2F3F2F1A2F760826
:100E8000031D432F482FF709F809F70A0319F80A39
:100E90007808F101F1077708F001F00708008316E0
:100EA000031386018312031386018316031387013C
:100EB000831203138701071E5E2F5F2FFC2F003064
:100EC000FC000030FD007D08803AFE0080307E028C
:100ED000031D6C2F64307C02031C6F2F702F712F49
:100EE000FC2F7D08803AFE0080307E02031D7A2FA1
:100EF0000B307C02031C7D2F7E2F822F8312031365
:100F00000715832F07117D08803AFE0080307E028E
:100F1000031D8C2F33307C02031C8F2F902F942FB6
:100F2000831203138715952F87110A30F0000030C4
:100F3000F1007D08F301F3077C08F201F2070A12C1
:100F40008A11DF260A128A117108FB01FB0770085B
:100F5000FA01FA070A30F0000030F1007D08F301D1
:100F6000F3077C08F201F2070A128A117F260A129F
:100F70008A11710883120313B501B5077008B40113
:100F8000B407071087147A08F9007907203E840017
:100F90008313000886005030F000C330F1000A12BD
:100FA0008A1141260A128A1183120313071487102B
:100FB0003408F9007907203E840083130008860076
:100FC0005030F000C330F1000A128A1141260A1293
:100FD0008A110130FC070318FD0A0030FD077D0867
:100FE000803AFE0080307E02031DF82F64307C02C0
:100FF000031CFB2FFC2F712F5B2F0A128A11002874
:00000001FF
