:060000000A128A113A2FDA
:100E740083010A128A117D2F3F2F0130F0020030C6
:100E8400031CF103F102FF307106031D4B2FFF30E9
:100E94007006031D4E2F4F2F3F2F08007018532F3D
:100EA400572F8312031317165A2F83120313171283
:100EB4007108F3007008F20001300310F30CF20C17
:100EC400FF3E031D5F2F7218682F6C2F83120313CC
:100ED40097166F2F8312031397127108F30070088B
:100EE400F20002300310F30CF20CFF3E031D742FCA
:100EF4007208950008008316031387017F3083125C
:100F0400031392000C309700FF30831603139200F2
:100F14000030F4000030F5007508803AFE0084309B
:100F24007E02031D972F00307402031C9A2F9B2FFF
:100F34009C2FC32F7508F101F1077408F001F00725
:100F44000A128A1150270A128A11E830F00003307D
:100F5400F1000A128A113E270A128A110130F4079D
:100F64000318F50A0030F5077508803AFE0084304E
:100F74007E02031DBF2F00307402031CC22FC32F37
:100F84009C2F0030F4000430F5007508803AFE0010
:100F940080307E02031DD02F013074020318D32F3A
:100FA400D42FD52FFC2F7508F101F1077408F00137
:100FB400F0070A128A1150270A128A11E830F00049
:100FC4000330F1000A128A113E270A128A11FF30F7
:100FD400F4070318F50AFF30F5077508803AFE0098
:100FE40080307E02031DF82F013074020318FB2F9A
:0C0FF400FC2FD52F8A2F0A128A1100282A
:00000001FF
