:060000000A128A1110280B
:10000800FE000308F1000408F2000A08F3007F0864
:10001800F4000A128A11082C0A128A11672D00307E
:100028008A000408840A8207003467347034733401
:1000380020346C346F3463346134743469346F340D
:100048006E340034413454342B3443344D34473403
:1000580046343D3431340034573445344C34433419
:100068004F344D34453400346734703473340034BD
:1000780041345434003441300A128A11A9250A1235
:100088008A1154300A128A11A9250A128A112B30B2
:100098000A128A11A9250A128A1143300A128A11F2
:1000A800A9250A128A114D300A128A11A9250A12A5
:1000B8008A1147300A128A11A9250A128A11533067
:1000C8000A128A11A9250A128A113D300A128A11C8
:1000D800A9250A128A1122300A128A11A9250A12A0
:1000E8008A1139300A128A11A9250A128A11373061
:1000F8000A128A11A9250A128A1135300A128A11A0
:10010800A9250A128A1131300A128A11A9250A1260
:100118008A1135300A128A11A9250A128A1130303B
:100128000A128A11A9250A128A1135300A128A116F
:10013800A9250A128A1137300A128A11A9250A122A
:100148008A1130300A128A11A9250A128A1136300A
:100158000A128A11A9250A128A1122300A128A1152
:10016800A9250A128A110D300A128A11A9250A1224
:100178008A11103083120313E7002730E8000A12AF
:100188008A1184250A128A110A300A128A11A925AD
:100198000A128A11583083120313E7000230E8006C
:1001A8000A128A1184250A128A11583083120313FD
:1001B800E7000230E8000A128A1184250A128A111F
:1001C80001300A128A1117250A128A1100307602A4
:1001D8002C3003197502031CF228F3287E2980307D
:1001E8000A128A1187240A128A11E830831203132B
:1001F800E7000330E8000A128A1184250A128A11DE
:100208001030F7000030F800003078021C30031975
:100218007702031C1029112912293E297708203E4C
:1002280084008313000883120313EC006C08F900A0
:1002380079080A128A1151240A128A11790883123C
:10024800031399005830E7000230E8000A128A11B7
:1002580084250A128A110130F7070318F80A0030BA
:10026800F807003078021C3003197702031C3D2977
:100278003E291229C0300A128A1187240A128A11CB
:100288001E30F7000030F8000030780229300319DA
:100298007702031C5029512952297E297708203ECC
:1002A80084008313000883120313EC006C08F90020
:1002B80079080A128A1151240A128A1179088312BC
:1002C800031399005830E7000230E8000A128A1137
:1002D80084250A128A110130F7070318F80A00303A
:1002E800F80700307802293003197702031C7D29AA
:1002F8007E295229583083120313E7000230E800A0
:100308000A128A1184250A128A110D300A128A11DA
:10031800A9250A128A11603083120313E700EA3014
:10032800E8000A128A1184250A128A110A300A1270
:100338008A11A9250A128A11103083120313E700C3
:100348002730E8000A128A1184250A128A111A3005
:100358000A128A11A9250A128A115030831203132E
:10036800E700C330E8000A128A1184250A128A11AC
:10037800503083120313E700C330E8000A128A11D1
:1003880084250A128A11503083120313E700C33000
:10039800E8000A128A1184250A128A115030831241
:1003A8000313E700C330E8000A128A1184250A12F1
:1003B8008A11080083160313880183120313880126
:1003C80083160313870183120313870103308316EF
:1003D800031386008312031386010A128A11422529
:1003E8000A128A11643083120313E7000030E80010
:1003F8000A128A1184250A128A11243083160313DB
:100408009800903083120313980019308316031351
:100418009900583083120313E7000230E8000A12EB
:100428008A1184250A128A110B178B1758308312E8
:100438000313E7000230E8000A128A1184250A1221
:100448008A1101300A128A1187240A128A1180300F
:100458000A128A1187240A128A110A128A11982507
:100468000A128A11503083120313E700C330E800E0
:100478000A128A1184250A128A1118300A128A115E
:10048800EC240A128A11503083120313E700C33098
:10049800E8000A128A1184250A128A115030831240
:1004A8000313E700C330E8000A128A1184250A12F0
:1004B8008A11503083120313E700C330E8000A1290
:1004C8008A1184250A128A11503083120313E70017
:1004D800C330E8000A128A1184250A128A112430CE
:1004E8000A128A11BD240A128A110D300A128A11C1
:1004F800A9250A128A11603083120313E700EA3033
:10050800E8000A128A1184250A128A1160308312BF
:100518000313E700EA30E8000A128A1184250A1258
:100528008A110A300A128A11A9250A128A11103072
:1005380083120313E7002730E8000A128A11842582
:100548000A128A11103083120313E7002730E800DB
:100558000A128A1184250A128A110E300A128A1187
:10056800BD240A128A110D300A128A11A9250A120D
:100578008A11603083120313E700EA30E8000A1298
:100588008A1184250A128A11603083120313E70046
:10059800EA30E8000A128A1184250A128A110A3000
:1005A8000A128A11A9250A128A111030831203131C
:1005B800E7002730E8000A128A1184250A128A11F6
:1005C800103083120313E7002730E8000A128A115B
:1005D80084250A128A110A128A113F200A128A11E6
:1005E8000A128A11FD220A128A11732A0A128A1122
:1005F800102841300A128A11A9250A128A1154308A
:100608000A128A11A9250A128A112B300A128A1194
:10061800A9250A128A1143300A128A11A9250A1239
:100628008A114D300A128A11A9250A128A114730F7
:100638000A128A11A9250A128A1153300A128A113C
:10064800A9250A128A113D300A128A11A9250A120F
:100658008A1122300A128A11A9250A128A11383001
:100668000A128A11A9250A128A1130300A128A112F
:10067800A9250A128A1139300A128A11A9250A12E3
:100688008A1138300A128A11A9250A128A113130C2
:100698000A128A11A9250A128A1134300A128A11FB
:1006A800A9250A128A1132300A128A11A9250A12BA
:1006B8008A1130300A128A11A9250A128A11363095
:1006C8000A128A11A9250A128A1134300A128A11CB
:1006D800A9250A128A1122300A128A11A9250A129A
:1006E8008A110D300A128A11A9250A128A111030AE
:1006F80083120313E7002730E8000A128A118425C1
:100708000A128A110A300A128A11A9250A128A11B4
:10071800583083120313E7000230E8000A128A11E6
:1007280084250A128A11583083120313E700023015
:10073800E8000A128A1184250A128A1101300A1265
:100748008A1117250A128A11583083120313E700F9
:100758000230E8000A128A1184250A128A110D3023
:100768000A128A11A9250A128A116030831203130A
:10077800E700EA30E8000A128A1184250A128A1171
:100788000A300A128A11A9250A128A111030831216
:100798000313E7002730E8000A128A1184250A1299
:1007A8008A111A300A128A11A9250A128A115030A0
:1007B80083120313E700C330E8000A128A11842564
:1007C8000A128A11503083120313E700C330E8007D
:1007D8000A128A1184250A128A11503083120313CF
:1007E800E700C330E8000A128A1184250A128A1128
:1007F800503083120313E700C330E8000A128A114D
:1008080084250A128A110800831203138C1E0D2CEA
:100818000E2C462C8C121A08F0007008F900790882
:10082800523A031D182C192C272C6F08013A031D66
:100838001E2C1F2C272CE6010314E60D0310003094
:1008480003180130EF006608013A031D2C2C2D2CEB
:10085800462C003059022D30031958020318352C44
:10086800362C462C7908F0007508203E8400700864
:10087800831380007508013EF50076080318013ED1
:10088800003EF6007408FF0073088A0072088400AE
:1008980071088300FE0E7E0E090083120313EB001D
:1008A8006B08F0398800881408118815C830E700EB
:1008B8000030E8000A128A1184250A128A1183126C
:1008C800031388116B08E900EA010430FE000310E5
:1008D800E90DEA0DFE0B6B2C6908E0006A08E100DF
:1008E8006008F0398800881408118815C830E700B6
:1008F8000030E8000A128A1184250A128A1183122C
:1009080003138811080083120313EB006B08F039F6
:100918008800881008118815C830E7000030E80002
:100928000A128A1184250A128A1183120313881164
:100938006B08E900EA010430FE000310E90DEA0D36
:10094800FE0BA12C6908E0006A08E1006008F03994
:100958008800881008118815C830E7000030E800C2
:100968000A128A1184250A128A1183120313881124
:10097800080083120313EA00031000300318013043
:10098800EB00DE2C6B086A0784000A128A11132018
:100998000A128A1199002030E7004E30E8000A1246
:1009A8008A1184250A128A11013083120313E9007F
:1009B8006908EB076B086A0784000A128A1113207A
:1009C8000A128A110038031DEA2CEB2CC62C0800E9
:1009D80083120313EC000030ED000030EE00092D07
:1009E8006D086C0784000A128A1113200A128A11F2
:1009F8000A128A1151240A128A1101308312031330
:100A0800ED070318EE0A0030EE076D086C07840046
:100A18000A128A1113200A128A110038031D152D93
:100A2800162DF42C080083120313E7000030E800A9
:100A38000030E900342D202D0C1E232D242D202DCF
:100A480098106808670784000A128A1113200A128E
:100A58008A1199000130E8070318E90A0030E9070C
:100A68006808670784000A128A1113200A128A117B
:100A78000038031D402D412D1F2D080002300A1299
:100A88008A1187240A128A112C300A128A118724A3
:100A98000A128A1106300A128A1187240A128A1148
:100AA80001300A128A1187240A128A110C300A129C
:100AB8008A1187240A128A1180300A128A1187241F
:100AC8000A128A110800F501F601F701F8018313EB
:100AD8002030840067300A128A11B5250A128A115B
:100AE8000A128A11BD250A128A11EF000A128A1108
:100AF800BE250A128A11F90083010A128A11DE2919
:100B0800852D013083120313E7020030031CE8032C
:100B1800E802FF306806031D932DFF306706031DAA
:100B2800962D972D852D08002430831603139800E1
:100B38009030831203139800193083160313990019
:100B480018158B170B178C16080083120313E70070
:100B5800AD2D0C1EB02DB12DAD2D98106708990044
:100B6800080064008001840A04060319003404069E
:060B7800B62D01343734F4
:02400E00723FFF
:00000001FF
