:100000000A128A158D2C0310003003180130F600F7
:10001000F11F0B280C281428F009F109F00A031924
:10002000F10AF6010314F60DF31F172818282128EA
:10003000F209F309F20A0319F30A0130F400740813
:10004000F6060030F7000030F8007108700403195C
:100050002A282B286328F5010314F50D3A280130CE
:100060000310F00DF10DFF3E031D30280130F400A8
:100070007408F507F11F3D283E282F280130031092
:10008000F70DF80DFF3E031D3F2871087302031D95
:100090004B2870087202031C4E284F2856287008FF
:1000A000F2027108031CF303F3027714013003100A
:1000B000F10CF00CFF3E031D57280130F502031D23
:1000C000622863283E287608031D67286C28F709F4
:1000D000F809F70A0319F80A7808F101F107770817
:1000E000F001F00708005830F0000230F1000A1269
:1000F0008A1591240A128A11831203133608303E9E
:100100000A128A15B8240A128A115830F0000230F7
:10011000F1000A128A1591240A128A11831203131C
:100120003808303E0A128A15B8240A128A1158304B
:10013000F0000230F1000A128A1591240A128A1185
:10014000831203133A08303E0A128A15B8240A12A1
:100150008A115830F0000230F1000A128A159124F9
:100160000A128A11831203133C08303E0A128A15C0
:10017000B8240A128A115830F0000230F1000A1235
:100180008A1591240A128A11831203139F121F16D3
:100190009F111F145830F0000230F1000A128A1526
:1001A00091240A128A11831203131F0804389F0036
:1001B0005830F0000230F1000A128A1591240A1218
:1001C0008A11831203131E08F900FA010830FE0099
:1001D0000310F90DFA0DFE0BE828790883160313B6
:1001E000B2007A08B3005830F0000230F1000A1271
:1001F0008A1591240A128A11831603131E083207E6
:10020000B20033080318330AB3005830F00002304C
:10021000F1000A128A1591240A128A118316031317
:100220003208831203138800E830F0000330F10035
:10023000831603133308F301F3073208F201F207C0
:100240000A128A1523250A128A11710883120313D0
:10025000A701A7077008A601A607E830F000033041
:10026000F100831603133308F301F3073208F20198
:10027000F2070A128A15E6240A128A1171088312FB
:100280000313E301E3077008E201E2076430F000C2
:100290000030F1006308F301F3076208F201F2078E
:1002A0000A128A1103200A128A1171088312031399
:1002B000A901A9077008A801A8076430F000003060
:1002C000F1006308F301F3076208F201F2070A1272
:1002D0008A156C250A128A11710883120313E5012D
:1002E000E5077008E401E4070A30F0000030F1008F
:1002F0006508F301F3076408F201F2070A128A1194
:1003000003200A128A11710883120313AB01AB0791
:100310007008AA01AA070A30F0000030F100650851
:10032000F301F3076408F201F2070A128A156C253B
:100330000A128A11710883120313AD01AD07700808
:10034000AC01AC0788300A128A15A3240A128A115C
:100350005830F0000230F1000A128A1591240A1276
:100360008A11831203132608303E0A128A15B82414
:100370000A128A115830F0000230F1000A128A1570
:1003800091240A128A11831203132808303E0A129C
:100390008A15B8240A128A115830F0000230F10090
:1003A0000A128A1591240A128A11831203132A0849
:1003B000303E0A128A15B8240A128A115830F00009
:1003C0000230F1000A128A1591240A128A1183124E
:1003D00003132C08303E0A128A15B8240A128A1117
:1003E0005830F0000230F1000A128A1591240A12E6
:1003F0008A11831203139F121F169F151F14583062
:10040000F0000230F1000A128A1591240A128A11B2
:10041000831203131F0804389F005830F000023085
:10042000F1000A128A1591240A128A118312031309
:100430001E08F900FA010830FE000310F90DFA0D4C
:10044000FE0B1D2A790883160313B4007A08B50041
:100450005830F0000230F1000A128A1591240A1275
:100460008A11831603131E083407B40035080318D5
:10047000350AB5005830F0000230F1000A128A1532
:1004800091240A128A11831603133408831203136A
:100490008800E830F0000330F100831603133508BC
:1004A000F301F3073408F201F2070A128A15232533
:1004B0000A128A11710883120313AF01AF07700883
:1004C000AE01AE07E830F0000330F10083160313ED
:1004D0003508F301F3073408F201F2070A128A150E
:1004E000E6240A128A11710883120313E701E70751
:1004F0007008E601E6076430F0000030F10067089C
:10050000F301F3076608F201F2070A128A110320C9
:100510000A128A11710883120313B101B10770081E
:10052000B001B0076430F0000030F1006708F3015B
:10053000F3076608F201F2070A128A156C250A12FF
:100540008A11710883120313E901E9077008E801B1
:10055000E8070A30F0000030F1006908F301F30702
:100560006808F201F2070A128A1103200A128A119E
:10057000710883120313B301B3077008B201B20705
:100580000A30F0000030F1006908F301F307680851
:10059000F201F2070A128A156C250A128A117108F3
:1005A00083120313B501B5077008B401B4078C308A
:1005B0000A128A15A3240A128A115830F000023058
:1005C000F1000A128A1591240A128A118312031368
:1005D0002E08303E0A128A15B8240A128A115830A1
:1005E000F0000230F1000A128A1591240A128A11D1
:1005F000831203133008303E0A128A15B8240A12F7
:100600008A115830F0000230F1000A128A15912444
:100610000A128A11831203133208303E0A128A1515
:10062000B8240A128A115830F0000230F1000A1280
:100630008A1591240A128A11831203133408303E5A
:100640000A128A15B8240A128A115830F0000230B2
:10065000F1000A128A1591240A128A1183120313D7
:100660009F161F129F111F145830F0000230F10026
:100670000A128A1591240A128A11831203131F0881
:1006800004389F005830F0000230F1000A128A1539
:1006900091240A128A11831203131E08F900FA0129
:1006A0000830FE000310F90DFA0DFE0B522B7908ED
:1006B00083160313B6007A08B7005830F0000230F2
:1006C000F1000A128A1591240A128A118316031363
:1006D0001E083607B60037080318370AB700360871
:1006E000831203138800E830F0000330F100831612
:1006F00003133708F301F3073608F201F2070A1271
:100700008A1523250A128A11710883120313BF0167
:10071000BF077008BE01BE07E830F0000330F100EB
:10072000831603133708F301F3073608F201F207C3
:100730000A128A15E6240A128A1171088312031319
:10074000EF01EF077008EE01EE076430F0000030B3
:10075000F1006F08F301F3076E08F201F2070A12C5
:100760008A1103200A128A11710883120313C1012E
:10077000C1077008C001C0076430F0000030F1000C
:100780006F08F301F3076E08F201F2070A128A15E7
:100790006C250A128A11710883160313A101A1079F
:1007A0007008A001A0070A30F0000030F100210815
:1007B000F301F3072008F201F2070A128A1103205D
:1007C0000A128A11710883120313C301C307700848
:1007D000C201C2070A30F0000030F1008316031393
:1007E0002108F301F3072008F201F2070A128A1523
:1007F0006C250A128A11710883120313C501C507FB
:100800007008C401C407C0300A128A15A3240A1252
:100810008A115830F0000230F1000A128A15912432
:100820000A128A11831203133E08303E0A128A15F7
:10083000B8240A128A115830F0000230F1000A126E
:100840008A1591240A128A11831203134008303E3C
:100850000A128A15B8240A128A115830F0000230A0
:10086000F1000A128A1591240A128A1183120313C5
:100870004208303E0A128A15B8240A128A115830EA
:10088000F0000230F1000A128A1591240A128A112E
:10089000831203134408303E0A128A15B8240A1240
:1008A0008A115830F0000230F1000A128A159124A2
:1008B0000A128A11831203139F161F129F151F1409
:1008C0005830F0000230F1000A128A1591240A1201
:1008D0008A11831203131F0804389F005830F00058
:1008E0000230F1000A128A1591240A128A11831229
:1008F00003131E08F900FA010830FE000310F90D79
:10090000FA0DFE0B7E2C790883160313B8007A08C3
:10091000B9005830F0000230F1000A128A15912413
:100920000A128A11831603131E083807B800390803
:100930000318390AB9003808831203138800E83015
:10094000F0000330F100831603133908F301F307B5
:100950003808F201F2070A128A1523250A128A11B1
:10096000710883120313D701D7077008D601D60781
:10097000E830F0000330F100831603133908F30167
:10098000F3073808F201F2070A128A15E6240A1260
:100990008A11710883160313AB01AB077008AA0113
:1009A000AA076430F0000030F1002B08F301F307D0
:1009B0002A08F201F2070A128A1103200A128A1188
:1009C000710883120313D901D9077008D801D80719
:1009D0006430F0000030F100831603132B08F3019C
:1009E000F3072A08F201F2070A128A156C250A1287
:1009F0008A11710883160313AD01AD077008AC01AD
:100A0000AC070A30F0000030F1002D08F301F307C5
:100A10002C08F201F2070A128A1103200A128A1125
:100A2000710883120313DB01DB077008DA01DA07B0
:100A30000A30F0000030F100831603132D08F30193
:100A4000F3072C08F201F2070A128A156C250A1224
:100A50008A11710883120313DD01DD077008DC01C0
:100A6000DC07C4300A128A15A3240A128A115830EE
:100A7000F0000230F1000A128A1591240A128A113C
:100A8000831203135608303E0A128A15B8240A123C
:100A90008A115830F0000230F1000A128A159124B0
:100AA0000A128A11831203135808303E0A128A155B
:100AB000B8240A128A115830F0000230F1000A12EC
:100AC0008A1591240A128A11831203135A08303EA0
:100AD0000A128A15B8240A128A115830F00002301E
:100AE000F1000A128A1591240A128A118312031343
:100AF0005C08303E0A128A15B8240A128A1158304E
:100B0000F0000230F1000A128A1591240A128A11AB
:100B1000831203139F161F169F111F145830F000E5
:100B20000230F1000A128A1591240A128A118312E6
:100B300003131F0804389F005830F0000230F10002
:100B40000A128A1591240A128A11831203131E08AD
:100B5000F900FA010830FE000310F90DFA0DFE0B42
:100B6000AC2D790883160313BA007A08BB005830FD
:100B7000F0000230F1000A128A1591240A128A113B
:100B8000831603131E083A07BA003B0803183B0AF2
:100B9000BB005830F0000230F1000A128A1591248F
:100BA0000A128A11831603133A088312031388006A
:100BB000E830F0000330F100831603133B08F30123
:100BC000F3073A08F201F2070A128A1523250A12DE
:100BD0008A11710883120313C701C7077008C60181
:100BE000C607E830F0000330F100831603133B081A
:100BF000F301F3073A08F201F2070A128A15E62414
:100C00000A128A11710883160313A301A30770083F
:100C1000A201A2076430F0000030F1002308F301C4
:100C2000F3072208F201F2070A128A1103200A12BE
:100C30008A11710883120313C901C9077008C8011A
:100C4000C8076430F0000030F10083160313230856
:100C5000F301F3072208F201F2070A128A156C2544
:100C60000A128A11710883160313A501A5077008DB
:100C7000A401A4070A30F0000030F1002508F301B8
:100C8000F3072408F201F2070A128A1103200A125C
:100C90008A11710883120313CB01CB077008CA01B4
:100CA000CA070A30F0000030F1008316031325084C
:100CB000F301F3072408F201F2070A128A156C25E2
:100CC0000A128A11710883120313CD01CD0770082F
:100CD000CC01CC07C8300A128A15A3240A128A1143
:100CE0005830F0000230F1000A128A1591240A12DD
:100CF0008A11831203134608303E0A128A15B8245B
:100D00000A128A115830F0000230F1000A128A15D6
:100D100091240A128A11831203134808303E0A12E2
:100D20008A15B8240A128A115830F0000230F100F6
:100D30000A128A1591240A128A11831203134A088F
:100D4000303E0A128A15B8240A128A115830F0006F
:100D50000230F1000A128A1591240A128A118312B4
:100D600003134C08303E0A128A15B8240A128A115D
:100D70005830F0000230F1000A128A1591240A124C
:100D80008A11831203139F161F169F151F145830C4
:100D9000F0000230F1000A128A1591240A128A1119
:100DA000831203131F0804389F005830F0000230EC
:100DB000F1000A128A1591240A128A118312031370
:100DC0001E08F900FA010830FE000310F90DFA0DB3
:100DD000FE0BE52E790883160313BC007A08BD00CC
:100DE0005830F0000230F1000A128A1591240A12DC
:100DF0008A11831603131E083C07BC003D08031824
:100E00003D0ABD005830F0000230F1000A128A1588
:100E100091240A128A11831603133C0883120313C8
:100E20008800E830F0000330F100831603133D081A
:100E3000F301F3073C08F201F2070A128A15232591
:100E40000A128A11710883120313CF01CF077008A9
:100E5000CE01CE07E830F0000330F1008316031313
:100E60003D08F301F3073C08F201F2070A128A1564
:100E7000E6240A128A11710883160313A701A70733
:100E80007008A601A6076430F0000030F1002708C2
:100E9000F301F3072608F201F2070A128A11032070
:100EA0000A128A11710883120313D101D107700845
:100EB000D001D0076430F0000030F1008316031336
:100EC0002708F301F3072608F201F2070A128A1530
:100ED0006C250A128A11710883160313A901A90748
:100EE0007008A801A8070A30F0000030F1002908B6
:100EF000F301F3072808F201F2070A128A1103200E
:100F00000A128A11710883120313D301D3077008E0
:100F1000D201D2070A30F0000030F100831603132B
:100F20002908F301F3072808F201F2070A128A15CB
:100F30006C250A128A11710883120313D501D50793
:100F40007008D401D407CC300A128A15A3240A12DF
:100F50008A115830F0000230F1000A128A159124EB
:100F60000A128A11831203134E08303E0A128A15A0
:100F7000B8240A128A115830F0000230F1000A1227
:100F80008A1591240A128A11831203135008303EE5
:100F90000A128A15B8240A128A115830F000023059
:100FA000F1000A128A1591240A128A11831203137E
:100FB0005208303E0A128A15B8240A128A11583093
:100FC000F0000230F1000A128A1591240A128A11E7
:100FD000831203135408303E0A128A15B8240A12E9
:100FE0008A115830F0000230F1000A128A1591245B
:100FF0000A128A110A128A158F2F0A128A110028E2
:10191A0083010A128A15662F922C0130F0020030D8
:10192A00031CF103F102FF307106031D9E2CFF30E8
:10193A007006031DA12CA22C922C0800F20072083A
:10194A008312031388000710871007156430F0000C
:10195A000030F1000A128A1591240A128A1583129C
:10196A00031307110800F200720883120313880098
:10197A000714871007156430F0000030F1000A12CE
:10198A008A1591240A128A15831203130711080073
:10199A0038300A128A15A3240A128A1506300A1246
:1019AA008A15A3240A128A150C300A128A15A3244E
:1019BA000A128A1501300A128A15A3240A128A15F4
:1019CA000800710870040319EB2CEC2C1C2DF5018E
:1019DA000314F50DFB2C01300310F00DF10DFF3E41
:1019EA00031DF12C0130F4007408F507F11FFE2CD9
:1019FA00FF2CF02C71087302031D052D700872026A
:101A0A00031C082D092D0F2D7008F2027108031C02
:101A1A00F303F30201300310F10CF00CFF3E031D37
:101A2A00102D0130F502031D1B2D1C2DFF2C7308F0
:101A3A00F101F1077208F001F00708000030F50023
:101A4A000030F6007108700403192C2D2D2D652D18
:101A5A00F7010314F70D3C2D01300310F00DF10DC1
:101A6A00FF3E031D322D0130F4007408F707F11F01
:101A7A003F2D402D312D01300310F50DF60DFF3E9F
:101A8A00031D412D71087302031D4D2D700872024A
:101A9A00031C502D512D582D7008F2027108031C99
:101AAA00F303F302751401300310F10CF00CFF3E3E
:101ABA00031D592D0130F702031D642D652D402D9C
:101ACA007608F101F1077508F001F0070800031024
:101ADA00003003180130F600F31F742D752D7D2D8B
:101AEA00F209F309F20A0319F30AF6010314F60DCF
:101AFA00F11F802D812D862DF009F109F00A0319B5
:101B0A00F10A7108700403198B2D8C2DBC2DF50177
:101B1A000314F50D9B2D01300310F00DF10DFF3E5E
:101B2A00031D912D0130F4007408F507F11F9E2D55
:101B3A009F2D902D71087302031DA52D7008720246
:101B4A00031CA82DA92DAF2D7008F2027108031CE1
:101B5A00F303F30201300310F10CF00CFF3E031DF6
:101B6A00B02D0130F502031DBB2DBC2D9F2D76082B
:101B7A00031DC02DC52DF209F309F20A0319F30A50
:101B8A007308F101F1077208F001F00708008312E7
:101B9A000313B701B7077008B601B607E830F000BB
:101BAA000330F100831603133108F301F3073008F9
:101BBA00F201F2070A128A15E6240A128A15710836
:101BCA0083120313EB01EB077008EA01EA0764309A
:101BDA00F0000030F1006B08F301F3076A08F20124
:101BEA00F2070A128A1103200A128A15710883124F
:101BFA000313B901B9077008B801B8076430F000D7
:101C0A000030F1006B08F301F3076A08F201F207EA
:101C1A000A128A156C250A128A157108831203138F
:101C2A00ED01ED077008EC01EC070A30F000003016
:101C3A00F1006D08F301F3076C08F201F2070A12CA
:101C4A008A1103200A128A15710883120313BB0131
:101C5A00BB077008BA01BA070A30F0000030F10079
:101C6A006D08F301F3076C08F201F2070A128A15EC
:101C7A006C250A128A15710883120313BD01BD0768
:101C8A007008BC01BC0784300A128A15A3240A1200
:101C9A008A150A128A11732883120313DF01DF07D8
:101CAA007008DE01DE076430F0000030F1005F08E2
:101CBA00F301F3075E08F201F2070A128A11032000
:101CCA000A128A15710883120313A101A107700869
:101CDA00A001A0076430F0000030F1005F08F301B2
:101CEA00F3075E08F201F2070A128A156C250A1236
:101CFA008A15710883120313E101E1077008E001F4
:101D0A00E0070A30F0000030F1006108F301F30740
:101D1A006008F201F2070A128A1103200A128A15D0
:101D2A00710883120313A301A3077008A201A20773
:101D3A000A30F0000030F1006108F301F30760088F
:101D4A00F201F2070A128A156C250A128A1571081D
:101D5A0083120313A501A5077008A401A407803004
:101D6A000A128A15A3240A128A155830F000023082
:101D7A00F1000A128A1591240A128A157B08303E4C
:101D8A000A128A15B8240A128A155830F00002304D
:101D9A00F1000A128A1591240A128A150A128A1562
:101DAA00D62E831203132008303E0A128A15B8244D
:101DBA000A128A155830F0000230F1000A128A1508
:101DCA0091240A128A15831203132208303E0A123A
:101DDA008A15B8240A128A155830F0000230F10028
:101DEA000A128A1591240A128A15831203132408E7
:101DFA00303E0A128A15B8240A128A155830F000A1
:101E0A000230F1000A128A1591240A128A158312E5
:101E1A0003139F121F129F151F145830F00002302F
:101E2A00F1000A128A1591240A128A1583120313E1
:101E3A001F0804389F005830F0000230F1000A12DF
:101E4A008A1591240A128A15831203131E08F900AF
:101E5A00FA010830FE000310F90DFA0DFE0B302FBF
:101E6A00790883160313B0007A08B1005830F000DD
:101E7A000230F1000A128A1591240A128A15831671
:101E8A0003131E083007B00031080318310AB100E5
:101E9A003008831203138800E830F0000330F100A1
:101EAA00831603133108F301F3073008F201F2072E
:101EBA000A128A1523250A128A1571080A128A1526
:101ECA00CC2D8030831603139F00403083120313F6
:101EDA009F00831603138701831203138701831656
:101EEA000313880183120313880103308316031333
:101EFA0085008312031385010A128A15CD240A125A
:101F0A008A156430F0000030F1000A128A15912413
:101F1A000A128A15831203139F121F129F111F148C
:101F2A005830F0000230F1000A128A1591240A1280
:101F3A008A15831203131F0804389F005830F000D3
:101F4A000230F1000A128A1591240A128A158312A4
:101F5A0003131E08F900FA010830FE000310F90DF8
:101F6A00FA0DFE0BB32F790883160313AE007A0815
:101F7A00AF005830F0000230F1000A128A1591249D
:101F8A000A128A15831603131E082E07AE002F089D
:101F9A0003182F0AAF002E08831203138800E830B3
:101FAA00F0000330F100831603132F08F301F3073F
:101FBA002E08F201F2070A128A1523250A128A1537
:101FCA007108FC01FC077008FB01FB07E830F00010
:101FDA000330F100831603132F08F301F3072E08C9
:101FEA00F201F2070A128A15E6240A128A15710802
:061FFA000A128A15512EA7
:02400E00723FFF
:00000001FF
