:060000000A128A11082E0D
:100C100083010A128A11312F0D2E0130F0020030AB
:100C2000031CF103F102FF307106031D192EFF3082
:100C30007006031D1C2E1D2E0D2E0800F2007208DA
:100C40008312031388000710871007156430F00023
:100C50000030F1000A128A110C260A128A1183123E
:100C6000031307110800F2007208831203138800AF
:100C70000714871007156430F0000030F1000A12E5
:100C80008A110C260A128A11831203130711080015
:100C900038300A128A111E260A128A1106300A12E8
:100CA0008A111E260A128A110C300A128A111E2677
:100CB0000A128A1101300A128A111E260A128A119A
:100CC00008000310003003180130F600F31F692EEE
:100CD0006A2E722EF209F309F20A0319F30AF601D9
:100CE0000314F60DF11F752E762E7B2EF009F109F7
:100CF000F00A0319F10A710870040319802E812E7D
:100D0000B12EF5010314F50D902E01300310F00DF6
:100D1000F10DFF3E031D862E0130F4007408F50727
:100D2000F11F932E942E852E71087302031D9A2EA7
:100D300070087202031C9D2E9E2EA42E7008F202D3
:100D40007108031CF303F30201300310F10CF00CE3
:100D5000FF3E031DA52E0130F502031DB02EB12E5E
:100D6000942E7608031DB52EBA2EF209F309F20A65
:100D70000319F30A7308F101F1077208F001F00793
:100D800008000310003003180130F600F11FC92ECF
:100D9000CA2ED22EF009F109F00A0319F10AF60160
:100DA0000314F60DF31FD52ED62EDF2EF209F3090C
:100DB000F20A0319F30A0130F4007408F606003051
:100DC000F7000030F800710870040319E82EE92ECE
:100DD000212FF5010314F50DF82E01300310F00D4D
:100DE000F10DFF3E031DEE2E0130F4007408F507EF
:100DF000F11FFB2EFC2EED2E01300310F70DF80D28
:100E0000FF3E031DFD2E71087302031D092F70089C
:100E10007202031C0C2F0D2F142F7008F2027108A0
:100E2000031CF303F302771401300310F10CF00CF0
:100E3000FF3E031D152F0130F502031D202F212F2A
:100E4000FC2E7608031D252F2A2FF709F809F70A2B
:100E50000319F80A7808F101F1077708F001F007A3
:100E60000800831603138801831203138801831675
:100E7000031387018312031387010A128A1148267C
:100E80000A128A116430F0000030F1000A128A114F
:100E90000C260A128A11003083120313A8000030B6
:100EA000A9002908803AFE0083307E02031D5A2FD4
:100EB000E8302802031C5D2F5E2F5F2FFC2F64306B
:100EC000F0000030F100831203132908F301F30747
:100ED0002808F201F2070A128A11C1260A128A11A1
:100EE000710883120313A101A1077008A001A007D4
:100EF0006430F0000030F1002908F301F3072808FE
:100F0000F201F2070A128A1161260A128A11710887
:100F100083120313A701A7077008A601A6070A30CA
:100F2000F0000030F1002708F301F3072608F20172
:100F3000F2070A128A11C1260A128A117108831255
:100F40000313A301A3077008A201A2070A30F0004F
:100F50000030F1002708F301F3072608F201F20739
:100F60000A128A1161260A128A1171088312031368
:100F7000A501A5077008A401A40780300A128A11F0
:100F80001E260A128A11831203132008303E0A1209
:100F90008A1133260A128A11831203132208303E63
:100FA0000A128A1133260A128A11831203132408A3
:100FB000303E0A128A1133260A128A115030F0008C
:100FC000C330F1000A128A110C260A128A1101306C
:100FD00083120313A8070318A90A0030A9072908D8
:100FE000803AFE0083307E02031DF82FE83028028D
:100FF000031CFB2FFC2F5F2F4B2F0A128A11002896
:00000001FF
