:060000000A128A117A2F9A
:100EF40083010A128A11902F7F2F0130F0020030F3
:100F0400031CF103F102FF307106031D8B2FFF3028
:100F14007006031D8E2F8F2F7F2F08008316031357
:100F24008601831203138601013086005030F000DD
:100F3400C330F1000A128A117E270A128A11023084
:100F44008312031386005030F000C330F1000A12FC
:100F54008A117E270A128A11043083120313860031
:100F64005030F000C330F1000A128A117E270A12B1
:100F74008A1108308312031386005030F000C33006
:100F8400F1000A128A117E270A128A111030831284
:100F9400031386005030F000C330F1000A128A11A6
:100FA4007E270A128A1120308312031386005030E0
:100FB400F000C330F1000A128A117E270A128A1146
:100FC40040308312031386005030F000C330F10028
:100FD4000A128A117E270A128A118030831203139F
:100FE40086005030F000C330F1000A128A117E27C7
:0C0FF4000A128A11962F0A128A11002896
:00000001FF
