:100000000A128A11702E00308A000408840A8207BE
:100010000034773465346C3463346F346D34653454
:020020000034AA
:100C3600523464008001840A040603190034040651
:100C46001D2E7E088A007F08820024260A128A1139
:100C56008000840A04087D0603190034FF0A03197C
:100C6600FE0A282E362E0130F0020030031CF10356
:100C7600F102FF307106031D422EFF307006031D80
:100C8600452E462E362E08008316031381120112B6
:100C960081110114811401153C3083120313810064
:100CA600542E0B1D572E582E542E0B118101080061
:100CB6000134003402340034033400340434003484
:100CC600003400340034003400340034003400347E
:100CD60000340034003400340134FC018313203026
:100CE600840049300A128A111C260A128A11A03081
:100CF6008400D2300A128A111C260A128A115E302A
:100D0600FD000630FE005B30FF00493084000A1209
:100D16008A1128260A128A110A128A111B260A1219
:100D26008A11FD0083010A128A118D2F0030F0000E
:100D36000030F1007108803AFE0080307E02031D0B
:100D4600A62E65307002031CA92EAA2EAB2EC32E2A
:100D56000A128A1147260A128A110130F00703186F
:100D6600F10A0030F1077108803AFE0080307E02F9
:100D7600031DBF2E65307002031CC22EC32EAB2E80
:100D860008000030F0000030F1007108803AFE00E3
:100D960081307E02031DD12EF5307002031CD42E45
:100DA600D52ED62EEE2E0A128A1147260A128A113F
:100DB6000130F0070318F10A0030F1077108803A94
:100DC600FE0081307E02031DEA2EF5307002031C00
:100DD600ED2EEE2ED62E08007208F039831203137C
:100DE6008800881008118815C830F0000030F1001E
:100DF6000A128A1135260A128A11831203138811E0
:100E06007208F40003300310F40DFF3E031D062F95
:100E16000310740DF5007508F6007608F0398800A1
:100E2600881008118815C830F0000030F1000A1249
:100E36008A1135260A128A118312031388110800B3
:100E46007208F03983120313880088140811881574
:100E5600E830F0000330F1000A128A1135260A1232
:100E66008A118312031388117208F40003300310E9
:100E7600F40DFF3E031D3A2F0310740DF50075089F
:100E8600F6007608F0398800881408118815E830CD
:100E9600F0000330F1000A128A1135260A128A116F
:100EA6008312031388110800FB000030F90000309C
:100EB600FA007F2F79087B0784000A128A11032023
:100EC6000A128A11F700F8017708F2007808F30091
:100ED6000A128A1123270A128A11E830F000033019
:100EE600F1000A128A1135260A128A110130F90711
:100EF6000318FA0A0030FA0779087B0784000A12F9
:100F06008A1103200A128A110038031D8B2F8C2F99
:100F16005D2F0800831603138601831203138601CF
:100F26008316031387018312031387018030F200AF
:100F36000030F3000A128A11EF260A128A110130D4
:100F46000A128A1157270A128A111030F000273028
:100F5600F1000A128A1135260A128A111030F000A1
:100F66002730F1000A128A1135260A128A11143026
:100F7600831203138600013087000A128A11C426E1
:100F86000A128A1136308312031386000130870055
:100F96000A128A1199260A128A1141308312031302
:100FA6008600013087000A128A11C4260A128A11A5
:100FB6006130831203138600033087000A128A11F8
:100FC60099260A128A1111308312031386000430FF
:100FD60087000A128A11C4260A128A111330831254
:100FE60003138600063087000A128A1199260A1210
:0A0FF6008A11BA2F0A128A1100288E
:02400E00723FFF
:00000001FF
