:100000000A128A11432D00308A000408840A8207EC
:100010000034573445344C3443344F344D34453434
:020020000034AA
:100A760064008001840A04060319003404063C2D30
:100A8600F701F80183132030840032300A128A11EC
:100A96003B250A128A1183010A128A11DA2D532D77
:100AA6000130F0020030031CF103F102FF30710641
:100AB600031D5F2DFF307006031D622D632D532D20
:100AC6000800F200720883120313880007108710CB
:100AD6000715E830F0000330F1000A128A1152259A
:100AE6000A128A118312031307110800F200720812
:100AF600831203138800071487100715E830F000E7
:100B06000330F1000A128A1152250A128A11831241
:100B160003130711080038300A128A1164250A12D5
:100B26008A110C300A128A1164250A128A110630BB
:100B36000A128A1164250A128A1101300A128A11D0
:100B460064250A128A1180300A128A1164250A1253
:100B56008A110F300A128A1164250A128A110800B6
:100B6600F5000030F3000030F400CC2D7308750753
:100B760084000A128A1103200A128A110A128A11A3
:100B860079250A128A110130F3070318F40A003096
:100B9600F4077308750784000A128A1103200A12E3
:100BA6008A110038031DD82DD92DB92D0800F8302B
:100BB60083160313860087018801831203138801B5
:100BC600870186010A128A118E250A128A11E830D7
:100BD600F0000330F1000A128A1152250A128A1116
:100BE60001300A128A11B3250A128A118830F000E0
:100BF6001330F1000A128A1152250A128A11C030E6
:100C06000A128A1164250A128A110F300A128A11F1
:100C160064250A128A1106300A128A1164250A12FC
:100C26008A11831203138615061286120613061CF2
:100C36001D2E1E2E402E31300A128A1179250A12D7
:100C46008A117708F6007607203E84000130831368
:100C56008000840A003080007708013EF70078089B
:100C66000318013E003EF8005030F000C330F1009A
:100C76000A128A1152250A128A1183120313861C3C
:100C8600452E462E682E32300A128A1179250A120E
:100C96008A117708F6007607203E84000230831317
:100CA6008000840A003080007708013EF70078084B
:100CB6000318013E003EF8005030F000C330F1004A
:100CC6000A128A1152250A128A1183120313061D6B
:100CD6006D2E6E2E902E33300A128A1179250A1245
:100CE6008A117708F6007607203E840003308313C6
:100CF6008000840A003080007708013EF7007808FB
:100D06000318013E003EF8005030F000C330F100F9
:100D16000A128A1152250A128A11831203138611A6
:100D2600061686120613061C992E9A2EBC2E3430F1
:100D36000A128A1179250A128A117708F6007607AF
:100D4600203E8400043083138000840A0030800033
:100D56007708013EF70078080318013E003EF800C8
:100D66005030F000C330F1000A128A1152250A12DF
:100D76008A1183120313861CC12EC22EE42E35302F
:100D86000A128A1179250A128A117708F60076075F
:100D9600203E8400053083138000840A00308000E2
:100DA6007708013EF70078080318013E003EF80078
:100DB6005030F000C330F1000A128A1152250A128F
:100DC6008A1183120313061DE92EEA2E0C2F3630E4
:100DD6000A128A1179250A128A117708F60076070F
:100DE600203E8400063083138000840A0030800091
:100DF6007708013EF70078080318013E003EF80028
:100E06005030F000C330F1000A128A1152250A123E
:100E16008A11831203138611061286160613061C00
:100E2600152F162F382F37300A128A1179250A12F4
:100E36008A117708F6007607203E84000730831370
:100E46008000840A003080007708013EF7007808A9
:100E56000318013E003EF8005030F000C330F100A8
:100E66000A128A1152250A128A1183120313861C4A
:100E76003D2F3E2F602F38300A128A1179250A122B
:100E86008A117708F6007607203E8400083083131F
:100E96008000840A003080007708013EF700780859
:100EA6000318013E003EF8005030F000C330F10058
:100EB6000A128A1152250A128A1183120313061D79
:100EC600652F662F882F39300A128A1179250A1262
:100ED6008A117708F6007607203E840009308313CE
:100EE6008000840A003080007708013EF700780809
:100EF6000318013E003EF8005030F000C330F10008
:100F06000A128A1152250A128A11831203138611B4
:100F1600061286120617061C912F922FA92F2A3029
:100F26000A128A1179250A128A117708013EF700FA
:100F360078080318013E003EF8005030F000C33038
:100F4600F1000A128A1152250A128A11831203131A
:100F5600861CAE2FAF2FD12F30300A128A11792579
:100F66000A128A117708F6007607203E84000030C0
:100F760083138000840A003080007708013EF70062
:100F860078080318013E003EF8005030F000C330E8
:100F9600F1000A128A1152250A128A1183120313CA
:100FA600061DD62FD72FEE2F23300A128A11792548
:100FB6000A128A117708013EF70078080318013EE5
:100FC600003EF8005030F000C330F1000A128A11DA
:100FD60052250A128A117808803AFE0080307E0275
:100FE600031DF72F0A307702031CFA2FFB2FFC2F65
:0A0FF600FD2F022E0A128A110028B6
:00000001FF
