:100000000A128A11B62800308A000408840A82077E
:100010000034573445344C3443344F344D34453434
:1000200000346C3420346F34723420347234003431
:040030005A3400340A
:10015C0064008001840A0406031900340406AF28E5
:10016C0083132030840044300A128A11AE200A1204
:10017C008A1183010A128A11752DC4280130F002EC
:10018C000030031CF103F102FF307106031DD0286F
:10019C00FF307006031DD328D428C4280800F200B1
:1001AC007208831203138800071087100715643038
:1001BC00F0000030F1000A128A11C3200A128A11D1
:1001CC008312031307110800F20072088312031341
:1001DC0088000714871007156430F0000030F10018
:1001EC000A128A11C3200A128A11831203130711EF
:1001FC000800831203134E08F0004F08F100F201BF
:10020C008E30FC007C08F300031000300318013022
:10021C00F4000A128A11BF220A128A117008831282
:10022C000313CE007108CF007208D00008003830DC
:10023C000A128A11D5200A128A1106300A128A1162
:10024C00D5200A128A1118300A128A11D5200A12E6
:10025C008A111C300A128A11D5200A128A110C300C
:10026C000A128A11D5200A128A1101300A128A1137
:10027C00D5200A128A110800F3000030F400003077
:10028C00F5005B297408730784000A128A11032095
:10029C000A128A110A128A11EA200A128A110130F2
:1002AC00F4070318F50A0030F50774087307840087
:1002BC000A128A1103200A128A110038031D6729B9
:1002CC006829482908007108700403196E296F29E0
:1002DC009F29F5010314F50D7E2901300310F00D53
:1002EC00F10DFF3E031D74290130F4007408F5076D
:1002FC00F11F81298229732971087302031D882932
:10030C0070087202031C8B298C2992297008F20246
:10031C007108031CF303F30201300310F10CF00C11
:10032C00FF3E031D93290130F502031D9E299F29D1
:10033C0082297308F101F1077208F001F007080037
:10034C000030F5000030F600710870040319AF2975
:10035C00B029E829F7010314F70DBF290130031068
:10036C00F00DF10DFF3E031DB5290130F4007408AA
:10037C00F707F11FC229C329B42901300310F50D69
:10038C00F60DFF3E031DC42971087302031DD0290D
:10039C0070087202031CD329D429DB297008F202DD
:1003AC007108031CF303F302751401300310F10CF4
:1003BC00F00CFF3E031DDC290130F702031DE72979
:1003CC00E829C3297608F101F1077508F001F00757
:1003DC0008000310003003180130F600F31FF72952
:1003EC00F829002AF209F309F20A0319F30AF601B3
:1003FC000314F60DF11F032A042A092AF009F10946
:10040C00F00A0319F10A7108700403190E2A0F2A55
:10041C003F2AF5010314F50D1E2A01300310F00DCF
:10042C00F10DFF3E031D142A0130F4007408F5078A
:10043C00F11F212A222A132A71087302031D282A6C
:10044C0070087202031C2B2A2C2A322A7008F20222
:10045C007108031CF303F30201300310F10CF00CD0
:10046C00FF3E031D332A0130F502031D3E2A3F2AAD
:10047C00222A7608031D432A482AF209F309F20AB4
:10048C000319F30A7308F101F1077208F001F00780
:10049C0008000310003003180130F600F11F572A32
:1004AC00582A602AF009F109F00A0319F10AF60139
:1004BC000314F60DF31F632A642A6D2AF209F3095B
:1004CC00F20A0319F30A0130F4007408F60600303E
:1004DC00F7000030F800710870040319762A772AA7
:1004EC00AF2AF5010314F50D862A01300310F00D27
:1004FC00F10DFF3E031D7C2A0130F4007408F50752
:10050C00F11F892A8A2A7B2A01300310F70DF80D76
:10051C00FF3E031D8B2A71087302031D972A700876
:10052C007202031C9A2A9B2AA22A7008F2027108F2
:10053C00031CF303F302771401300310F10CF00CDD
:10054C00FF3E031DA32A0130F502031DAE2AAF2A7C
:10055C008A2A7608031DB32AB82AF709F809F70A7C
:10056C000319F80A7808F101F1077708F001F00790
:10057C0008007308031DC32ACA2A72087104700488
:10058C00031DC92ACA2AD12A0030F0000030F1001C
:10059C000030F200332BDE2A0130F5007508F3072A
:1005AC0001300310F20CF10CF00CFF3E031DD72AA6
:1005BC00FE307205031DE32AE42AD22AFB2A0130FD
:1005CC00F5007508F3070130F0070030031801300F
:1005DC00F107003003180130F20701300310F20C60
:1005EC00F10CF00CFF3E031DF42AFF307205031DC5
:1005FC00002B012BE52A0C2B0130F30201300310E8
:10060C00F00DF10DF20DFF3E031D052BF11F0F2B0D
:10061C00102B022B7318132B142B1A2BFF30F005F5
:10062C007F30F105FF30F2050310F30C7308F50071
:10063C00F601F70110300310F50DF60DF70DFF3E26
:10064C00031D212B7508F0047608F1047708F204D9
:10065C007408031D322B332BF21708007808831211
:10066C000313C4007908C5007A08C6000310450DB1
:10067C00460DC7004708CD00CD08031D462B472B60
:10068C00502B0030FB000030FA000030F900003035
:10069C00F800CF2B7808C4007908C5007A08C6008A
:1006AC0017300310C60CC50CC40CFF3E031D572B92
:1006BC004408C7004708C800F917FF30F805FF3099
:1006CC00F9050030FA057808C9007908CA007A08DB
:1006DC00CB00CC018E30CD02CD1F752B762B982BF9
:1006EC004D08803A8F3E03187C2B7D2B862B0030D7
:1006FC00FB000030FA000030F9000030F800CF2B7E
:10070C0001300310CC0CCB0CCA0CC90CFF3E031DE2
:10071C00872B0130C4004408CD07031D962B972B63
:10072C00862BB82B18304D02031C9D2B9E2BA72B10
:10073C000030FB000030FA000030F9000030F80007
:10074C00CF2BB32B0130C4000310C90DCA0DCB0D38
:10075C00CC0DC40BAA2B0130CD02CD08031DB72B39
:10076C00B82BA82B4808031DBC2BC72BC909CA09D9
:10077C00CB09CC09C90A0319CA0A0319CB0A0319F4
:10078C00CC0A4C08FB004B08FA004A08F90049084F
:10079C00F8000800831203135408D7005508D8003A
:1007AC005608D9000310580D590DDA005A08DF000D
:1007BC00DF08031DE22BE32BEA2B0030D1000030C5
:1007CC00D2000030D300912C5108D7005208D80029
:1007DC005308D9000310580D590DDA005A08E000DF
:1007EC00E008031DFA2BFB2B022C0030D10000304B
:1007FC00D2000030D300912C0030DC000030DD0042
:10080C000030DE0089306007D7005708DF0254083B
:10081C00D7005508D8005608D90010300310D90C51
:10082C00D80CD70CFF3E031D142C5708DA005A08BD
:10083C00E0005108D7005208D8005308D9001030F6
:10084C000310D90CD80CD70CFF3E031D262C5708CF
:10085C00DA005A08E0068030D7005708E005D517B3
:10086C00FF30D405FF30D5050030D605D217FF3048
:10087C00D105FF30D2050030D3051830D70057080A
:10088C00DB0001300310DC0DDD0DDE0DFF3E031D22
:10089C00482C53085602031D592C52085502031DAF
:1008AC00592C51085402031C5C2C5D2C682C5108EB
:1008BC00D4025208031C520FD5025308031C530ACE
:1008CC00D6025C1401300310D40DD50DD60DFF3EAD
:1008DC00031D692C0130DB02031D752C762C472C73
:1008EC005C08F0005D08F1005E08F2005F08D700BC
:1008FC005708F3006008D8005808F4000A128A114F
:10090C00BF220A128A11700883120313D1007108D6
:10091C00D2007208D3000800C0300A128A11D52008
:10092C000A128A1110300A128A1142210A128A11F3
:10093C00CA300A128A11D5200A128A11E830F00046
:10094C000330F1007A08F301F3077908F201F2079A
:10095C000A128A11A6210A128A1171088312031332
:10096C00A701A7077008A601A607E830F00003301E
:10097C00F1007A08F301F3077908F201F2070A1281
:10098C008A1169210A128A11710883120313AB01AF
:10099C00AB077008AA01AA076430F0000030F10020
:1009AC002B08F301F3072A08F201F2070A128A1145
:1009BC004F220A128A11710883120313AF01AF0779
:1009CC007008AE01AE076430F0000030F1002B0867
:1009DC00F301F3072A08F201F2070A128A11EF2138
:1009EC000A128A11710883120313B301B30770083A
:1009FC00B201B2070A30F0000030F1003308F30105
:100A0C00F3073208F201F2070A128A114F220A1276
:100A1C008A11710883120313B701B7077008B60166
:100A2C00B6070A30F0000030F1003308F301F30789
:100A3C003208F201F2070A128A11EF210A128A1106
:100A4C00710883120313BB01BB077008BA01BA0704
:100A5C002608303E0A128A11EA200A128A11E8305E
:100A6C00F0000330F1000A128A11C3200A128A1115
:100A7C00831203132E08303E0A128A11EA200A123E
:100A8C008A11E830F0000330F1000A128A11C320F9
:100A9C000A128A11831203133608303E0A128A1185
:100AAC00EA200A128A11E830F0000330F1000A1231
:100ABC008A11C3200A128A11831203133A08303E9A
:100ACC000A128A11EA200A128A11E830F000033067
:100ADC00F1000A128A11C3200A128A110800831627
:100AEC000313880183120313880103308316031345
:100AFC008500831203138501831603138701831268
:100B0C00031387018030831603139F004030831238
:100B1C0003139F000A128A111D210A128A116430D4
:100B2C00F0000030F1000A128A11C3200A128A1157
:100B3C0084300A128A11D5200A128A1101300A1245
:100B4C008A1142210A128A115030F000C330F10090
:100B5C000A128A11C3200A128A115030F000C330D5
:100B6C00F1000A128A11C3200A128A115030F000C7
:100B7C00C330F1000A128A11C3200A128A11013003
:100B8C000A128A11D5200A128A11831203139F129A
:100B9C001F129F111F145830F0000230F1000A127E
:100BAC008A11C3200A128A11831203131F080438F6
:100BBC009F005830F0000230F1000A128A11C32055
:100BCC000A128A11831203131E08E100E201083095
:100BDC00FE000310E10DE20DFE0BEF2D6108BC00D1
:100BEC006208BD005830F0000230F1000A128A1180
:100BFC00C3200A128A11831603131E0883120313CF
:100C0C003C07BC003D0803183D0ABD005830F000FD
:100C1C000230F1000A128A11C3200A128A118312BF
:100C2C0003133D08CF01CF073C08CE01CE070A12B3
:100C3C008A11FF200A128A11831203134E08D40062
:100C4C004F08D5005008D600E130D1000230D20058
:100C5C004030D3000A128A11D0230A128A1183124F
:100C6C0003135108F8005208F9005308FA000A124D
:100C7C008A1134230A128A11790883120313BD01D5
:100C8C00BD077808BC01BC07F9303C063D04031DC8
:100C9C00502E512E532E0713871300303D02F9307E
:100CAC0003193C0203185B2E5C2EA92EE830F000D1
:100CBC000330F1000A128A11C3200A128A1183121E
:100CCC0003133D084302031D6D2E3C08420203181A
:100CDC00702E712E862E071387175030F000C330FC
:100CEC00F1000A128A11C3200A128A115030F00046
:100CFC00C330F1000A128A11C3200A128A11932EF2
:100D0C0083120313071787135830F0000230F100D9
:100D1C000A128A11C3200A128A1183120313430880
:100D2C00FA01FA074208F901F9070A128A1192240A
:100D3C000A128A115830F0000230F1000A128A119E
:100D4C00C3200A128A11831203133D08C301C3077F
:100D5C003C08C201C20700303D02FA3003193C02C4
:100D6C00031CB92EBA2E072FE830F0000330F10027
:100D7C000A128A11C3200A128A1183120313410822
:100D8C003D02031DCB2E40083C020318CE2ECF2E65
:100D9C00E42E071787135030F000C330F1000A120D
:100DAC008A11C3200A128A115030F000C330F100AE
:100DBC000A128A11C3200A128A11F12E831203130C
:100DCC00071387175830F0000230F1000A128A110D
:100DDC00C3200A128A11831203134108FA01FA077D
:100DEC004008F901F9070A128A1192240A128A1191
:100DFC005830F0000230F1000A128A11C3200A1296
:100E0C008A11831203133D08C101C1073C08C001BC
:100E1C00C007E830F0000330F1000A128A11C32039
:100E2C000A128A1180300A128A11D5200A128A11EC
:100E3C0009300A128A1142210A128A118A300A12C6
:100E4C008A11D5200A128A11E830F0000330F10023
:100E5C00831203133D08F301F3073C08F201F20778
:100E6C000A128A11A6210A128A117108831203131D
:100E7C00A501A5077008A401A407E830F000033011
:100E8C00F1003D08F301F3073C08F201F2070A12E6
:100E9C008A1169210A128A11710883120313A9019C
:100EAC00A9077008A801A8076430F0000030F10011
:100EBC002908F301F3072808F201F2070A128A1134
:100ECC004F220A128A11710883120313AD01AD0768
:100EDC007008AC01AC076430F0000030F100290858
:100EEC00F301F3072808F201F2070A128A11EF2125
:100EFC000A128A11710883120313B101B107700829
:100F0C00B001B0070A30F0000030F1003108F301F5
:100F1C00F3073008F201F2070A128A114F220A1263
:100F2C008A11710883120313B501B5077008B40157
:100F3C00B4070A30F0000030F1003108F301F30778
:100F4C003008F201F2070A128A11EF210A128A11F3
:100F5C00710883120313B901B9077008B801B807F7
:100F6C002408303E0A128A11EA200A128A11E8304B
:100F7C00F0000330F1000A128A11C3200A128A1100
:100F8C00831203132C08303E0A128A11EA200A122B
:100F9C008A11E830F0000330F1000A128A11C320E4
:100FAC000A128A11831203133408303E0A128A1172
:100FBC00EA200A128A11E830F0000330F1000A121C
:100FCC008A11C3200A128A11831203133808303E87
:100FDC000A128A11EA200A128A11E830F000033052
:100FEC00F1000A128A11C3200A128A11CB2D0A129F
:040FFC008A1100282E
:02400E00723FFF
:00000001FF
