:100000000A128A116B2B00308A000408840A8207C6
:10001000003463346F346E346E3465346334743456
:1000200069346E3467342E342E342E342E342E340C
:100030002E342E340034633461346C346C34203408
:1000400064346934733463346F346E346E346534BD
:100050006334743465346434003463346F346E3420
:100060006E34653463347434653464342E342E3421
:100070002E342E342E342E342E34003449344E3463
:100080005334453452345434203454344834453491
:10009000203443344F3449344E34003464346934AA
:1000A00061346C34203474346834653420346E34F4
:1000B00075346D34623465347234003457344534E9
:0C00C0004C3443344F344D34453400348C
:1006C60064008001840A0406031900340406642BBE
:1006D600F901FA0183132030840032300A128A119C
:1006E60063230A128A1183010A128A11C62C7B2BF4
:1006F6000130F0020030031CF103F102FF307106F5
:10070600031D872BFF307006031D8A2B8B2B7B2B3B
:100716000800F2007208831203138800071087107E
:1007260007156430F0000030F1000A128A117A23AE
:100736000A128A118312031307110800F2007208C5
:100746008312031388000714871007156430F0001E
:100756000030F1000A128A117A230A128A118312D2
:1007660003130711080038300A128A118C230A1263
:100776008A1106300A128A118C230A128A110C3049
:100786000A128A118C230A128A1101300A128A115E
:100796008C230A128A110800F3000030F40000309E
:1007A600F500E82B7408730784000A128A110320E7
:1007B6000A128A110A128A11A1230A128A11013019
:1007C600F4070318F50A0030F50774087307840068
:1007D6000A128A1103200A128A110038031DF42B0B
:1007E600F52BD52B08000310003003180130F60056
:1007F600F31FFE2BFF2B072CF209F309F20A03194C
:10080600F30AF6010314F60DF11F0A2C0B2C102C1B
:10081600F009F109F00A0319F10A710870040319C5
:10082600152C162C462CF5010314F50D252C01303C
:100836000310F00DF10DFF3E031D1B2C0130F400DB
:100846007408F507F11F282C292C1A2C710873023D
:10085600031D2F2C70087202031C322C332C392CEA
:100866007008F2027108031CF303F302013003104F
:10087600F10CF00CFF3E031D3A2C0130F502031D6E
:10088600452C462C292C7608031D4A2C4F2CF209A0
:10089600F309F20A0319F30A7308F101F107720862
:1008A600F001F00708000310003003180130F600CD
:1008B600F11F5E2C5F2C672CF009F109F00A031971
:1008C600F10AF6010314F60DF31F6A2C6B2C742C37
:1008D600F209F309F20A0319F30A0130F400740865
:1008E600F6060030F7000030F800710870040319AE
:1008F6007D2C7E2CB62CF5010314F50D8D2C0130C4
:100906000310F00DF10DFF3E031D832C0130F400A2
:100916007408F507F11F902C912C822C01300310DE
:10092600F70DF80DFF3E031D922C71087302031D8F
:100936009E2C70087202031CA12CA22CA92C7008F4
:10094600F2027108031CF303F3027714013003105B
:10095600F10CF00CFF3E031DAA2C0130F502031D1D
:10096600B52CB62C912C7608031DBA2CBF2CF70992
:10097600F809F70A0319F80A7808F101F107770868
:10098600F001F0070800831603138801831203138E
:100996008801831603138701831203138701073027
:1009A6008316031386008312031386010A128A1123
:1009B600B6230A128A116430F0000030F1000A12E0
:1009C6008A117A230A128A1183120313871DEC2CCB
:1009D600ED2C0E2D80300A128A118C230A128A11F0
:1009E60056300A128A11CF230A128A115030F000AB
:1009F600C330F1000A128A117A230A128A110130D1
:100A06000A128A118C230A128A1136300A128A11A6
:100A1600CF230A128A1183120313071E132D142DD6
:100A2600462D01300A128A118C230A128A1180304F
:100A36000A128A118C230A128A1146300A128A1166
:100A4600CF230A128A11C0300A128A118C230A1285
:100A56008A110A128A1116260A128A1101300A12FE
:100A66008A118C230A128A1101300A128A11CF23A5
:100A76000A128A115030F000C330F1000A128A11AE
:100A86007A230A128A115030F000C330F1000A129C
:100A96008A117A230A128A1183120313871E542D90
:100AA600552D122E01300A128A118C230A128A1130
:100AB6008830F0001330F1000A128A117A230A12E4
:100AC6008A1180300A128A118C230A128A11253063
:100AD6000A128A11CF230A128A115030F000C3304D
:100AE600F1000A128A117A230A128A113B30831204
:100AF6000313B6000030B700B71F822D832D842D57
:100B0600122E0A30F0000030F1003708F301F30727
:100B16003608F201F2070A128A1156240A128A11BD
:100B2600710883120313B301B3077008B201B20749
:100B36000A30F0000030F1003708F301F3073608F9
:100B4600F201F2070A128A11F6230A128A117108B3
:100B560083120313B501B5077008B401B407C0309A
:100B66000A128A118C230A128A118312031332087D
:100B7600303E0A128A11A1230A128A118312031324
:100B86003408303E0A128A11A1230A128A11503003
:100B9600F000C330F1000A128A117A230A128A1170
:100BA600831203133708803AFE0080307E02031D4D
:100BB600DE2D0B3036020318E12DE22D062E8312B0
:100BC6000313071FE72DE82DF02D36083C3EB6002F
:100BD60037080318013E003EB700071BF32DF42D1E
:100BE600062E01300A128A118C230A128A11C0308D
:100BF6000A128A118C230A128A1113300A128A11D8
:100C0600CF230A128A11FF3083120313B607031883
:100C1600B70AFF30B707B71F112E122E842DE72C07
:100C26000A128A11002883120313861506128612E9
:100C36000613061C1F2E202E422E31300A128A1150
:100C4600A1230A128A117908F3007307203E840053
:100C5600013083138000840A003080007908013E49
:100C6600F9007A080318013E003EFA005030F00001
:100C7600C330F1000A128A117A230A128A118312EA
:100C86000313861C472E482E6A2E32300A128A110A
:100C9600A1230A128A117908F3007307203E840003
:100CA600023083138000840A003080007908013EF8
:100CB600F9007A080318013E003EFA005030F000B1
:100CC600C330F1000A128A117A230A128A1183129A
:100CD6000313061D6F2E702E922E33300A128A11C0
:100CE600A1230A128A117908F3007307203E8400B3
:100CF600033083138000840A003080007908013EA7
:100D0600F9007A080318013E003EFA005030F00060
:100D1600C330F1000A128A117A230A128A11831249
:100D260003138611061686120613061C9B2E9C2E8E
:100D3600BE2E34300A128A11A1230A128A117908AA
:100D4600F3007307203E8400043083138000840A76
:100D5600003080007908013EF9007A080318013E48
:100D6600003EFA005030F000C330F1000A128A113A
:100D76007A230A128A1183120313861CC32EC42EE9
:100D8600E62E35300A128A11A1230A128A11790831
:100D9600F3007307203E8400053083138000840A25
:100DA600003080007908013EF9007A080318013EF8
:100DB600003EFA005030F000C330F1000A128A11EA
:100DC6007A230A128A1183120313061DEB2EEC2EC8
:100DD6000E2F36300A128A11A1230A128A117908B7
:100DE600F3007307203E8400063083138000840AD4
:100DF600003080007908013EF9007A080318013EA8
:100E0600003EFA005030F000C330F1000A128A1199
:100E16007A230A128A118312031386110612861682
:100E26000613061C172F182F3A2F37300A128A116D
:100E3600A1230A128A117908F3007307203E840061
:100E4600073083138000840A003080007908013E51
:100E5600F9007A080318013E003EFA005030F0000F
:100E6600C330F1000A128A117A230A128A118312F8
:100E76000313861C3F2F402F622F38300A128A1127
:100E8600A1230A128A117908F3007307203E840011
:100E9600083083138000840A003080007908013E00
:100EA600F9007A080318013E003EFA005030F000BF
:100EB600C330F1000A128A117A230A128A118312A8
:100EC6000313061D672F682F8A2F39300A128A11DD
:100ED600A1230A128A117908F3007307203E8400C1
:100EE600093083138000840A003080007908013EAF
:100EF600F9007A080318013E003EFA005030F0006F
:100F0600C330F1000A128A117A230A128A11831257
:100F160003138611061286120617061C932F942FAA
:100F2600AB2F2A300A128A11A1230A128A117908D4
:100F3600013EF9007A080318013E003EFA005030DF
:100F4600F000C330F1000A128A117A230A128A11BC
:100F560083120313861CB02FB12FD32F30300A1201
:100F66008A11A1230A128A117908F3007307203E19
:100F76008400003083138000840A003080007908E2
:100F8600013EF9007A080318013E003EFA0050308F
:100F9600F000C330F1000A128A117A230A128A116C
:100FA60083120313061DD82FD92FF02F23300A12D0
:100FB6008A11A1230A128A117908013EF9007A08DA
:100FC6000318013E003EFA005030F000C330F10035
:100FD6000A128A117A230A128A117A08803AFE00C6
:100FE60080307E02031DF92F0A307902031CFC2F84
:0A0FF600FD2FFE2FFF2F162E08001E
:00000001FF
