:100000000A128A11472F00308A000408840A8207E6
:100010000034573445344C3443344F344D34453434
:020020000034AA
:100E8E0083010A128A11CD2F4C2F0130F00200304F
:100E9E00031CF103F102FF307106031D582FFF30C2
:100EAE007006031D5B2F5C2F4C2F0800F20072089A
:100EBE008312031388000710871007156430F000A3
:100ECE000030F1000A128A114B270A128A1183127E
:100EDE00031307110800F20072088312031388002F
:100EEE000714871007156430F0000030F1000A1265
:100EFE008A114B270A128A11831203130711080055
:100F0E0038300A128A115D270A128A1106300A1227
:100F1E008A115D270A128A110C300A128A115D2776
:100F2E000A128A1101300A128A115D270A128A11D9
:100F3E0080300A128A115D270A128A110800F50004
:100F4E000030F3000030F400BF2F730875078400E3
:100F5E000A128A1103200A128A110A128A117227A2
:100F6E000A128A110130F3070318F40A0030F4074D
:100F7E007308750784000A128A1103200A128A1157
:100F8E000038031DCB2FCC2FAC2F08008316031374
:100F9E0088018312031388018316031387018312BA
:100FAE00031387010A128A1187270A128A116430E5
:100FBE00F0000030F1000A128A114B270A128A1132
:100FCE0080300A128A115D270A128A1101300A1224
:100FDE008A11A6270A128A115030F000C330F10090
:100FEE000A128A114B270A128A11E72F0A128A1146
:020FFE000028C9
:00000001FF
