:060000000A128A11242FF0
:100E4800F401F50183010A128A11A82FF100710833
:100E5800831203178D00831603178C130C14831247
:100E680003170C08F0007008F40008003B2F01304D
:100E7800F0020030031CF103F102FF307106031D7C
:100E8800472FFF307006031D4A2F4B2F3B2F0800BA
:100E9800F2007208831203138800071087100715E1
:100EA8006430F0000030F1000A128A113A270A1261
:100EB8008A118312031307110800F20072088312C3
:100EC800031388000714871007156430F0000030FA
:100ED800F1000A128A113A270A128A11831203139F
:100EE80007110800F1007108831203178D007008BC
:100EF8008C00831603178C130C1555308D00AA30FF
:100F08008D008C14872F831203130D1E8C2F8D2FA9
:100F1800872F0D12080038300A128A114C270A123E
:100F28008A1106300A128A114C270A128A110C30CB
:100F38000A128A114C270A128A1101300A128A11E0
:100F48004C270A128A11080083160313880183129A
:100F58000313880183160313870183120313870180
:100F68000A128A118F270A128A116430F0000030A1
:100F7800F1000A128A113A270A128A1180300A12DD
:100F88008A114C270A128A1161300A128A116127C4
:100F98000A128A112030F000A130F1000A128A11D9
:100FA8003A270A128A114D30F3007308F00007300F
:100FB8000A128A1176270A128A1107300A128A1130
:100FC8002A270A128A11C0300A128A114C270A12DB
:100FD8008A1174080A128A1161270A128A11E830E4
:100FE800F0000330F1000A128A113A270A128A1116
:080FF800D72F0A128A1100280C
:00000001FF
