:060000000A128A113F2CD8
:10087E00FB01FC0183010A128A113E2E462C013027
:10088E00F0020030031CF103F102FF307106031D6C
:10089E00522CFF307006031D552C562C462C08008A
:1008AE0002300A128A117C240A128A112C300A1282
:1008BE008A117C240A128A1106300A128A117C24AB
:1008CE000A128A1101300A128A117C240A128A1124
:1008DE000C300A128A117C240A128A1180300A12F4
:1008EE008A117C240A128A110800F4007408F03967
:1008FE00831203138800881008118815C830F00081
:10090E000030F1000A128A1145240A128A1183124C
:10091E00031388117408F200F3010430FE00031073
:10092E00F20DF30DFE0B962C7208FB007308FC0003
:10093E007B08F0398800881008118815C830F0003F
:10094E000030F1000A128A1145240A128A1183120C
:10095E00031388110800F4007408F039831203138E
:10096E008800881408118815C830F0000030F10096
:10097E000A128A1145240A128A118312031388114E
:10098E007408F200F3010430FE000310F20DF30DB3
:10099E00FE0BCC2C7208FB007308FC007B08F039B0
:1009AE008800881408118815C830F0000030F10056
:1009BE000A128A1145240A128A118312031388110E
:1009CE000800710870040319ED2CEE2C1E2DF50194
:1009DE000314F50DFD2C01300310F00DF10DFF3E4B
:1009EE00031DF32C0130F4007408F507F11F002DE0
:1009FE00012DF22C71087302031D072D700872026F
:100A0E00031C0A2D0B2D112D7008F2027108031C08
:100A1E00F303F30201300310F10CF00CFF3E031D43
:100A2E00122D0130F502031D1D2D1E2D012D7308F3
:100A3E00F101F1077208F001F00708000030F5002F
:100A4E000030F6007108700403192E2D2F2D672D1E
:100A5E00F7010314F70D3E2D01300310F00DF10DCB
:100A6E00FF3E031D342D0130F4007408F707F11F0B
:100A7E00412D422D332D01300310F50DF60DFF3EA5
:100A8E00031D432D71087302031D4F2D7008720252
:100A9E00031C522D532D5A2D7008F2027108031C9F
:100AAE00F303F302751401300310F10CF00CFF3E4A
:100ABE00031D5B2D0130F702031D662D672D422DA0
:100ACE007608F101F1077508F001F0070800031030
:100ADE00003003180130F600F31F762D772D7F2D91
:100AEE00F209F309F20A0319F30AF6010314F60DDB
:100AFE00F11F822D832D882DF009F109F00A0319BB
:100B0E00F10A7108700403198D2D8E2DBE2DF5017D
:100B1E000314F50D9D2D01300310F00DF10DFF3E68
:100B2E00031D932D0130F4007408F507F11FA02D5D
:100B3E00A12D922D71087302031DA72D700872024C
:100B4E00031CAA2DAB2DB12D7008F2027108031CE7
:100B5E00F303F30201300310F10CF00CFF3E031D02
:100B6E00B22D0130F502031DBD2DBE2DA12D76082F
:100B7E00031DC22DC72DF209F309F20A0319F30A58
:100B8E007308F101F1077208F001F0070800031075
:100B9E00003003180130F600F11FD62DD72DDF2DB2
:100BAE00F009F109F00A0319F10AF6010314F60D22
:100BBE00F31FE22DE32DEC2DF209F309F20A0319CE
:100BCE00F30A0130F4007408F6060030F700003026
:100BDE00F800710870040319F52DF62D2E2EF5016F
:100BEE000314F50D052E01300310F00DF10DFF3E2F
:100BFE00031DFB2D0130F4007408F507F11F082EBC
:100C0E00092EFA2D01300310F70DF80DFF3E031DCE
:100C1E000A2E71087302031D162E70087202031C31
:100C2E00192E1A2E212E7008F2027108031CF303DE
:100C3E00F302771401300310F10CF00CFF3E031D8C
:100C4E00222E0130F502031D2D2E2E2E092E760892
:100C5E00031D322E372EF709F809F70A0319F80A81
:100C6E007808F101F1077708F001F00708008E30DF
:100C7E00831603139F004030831203139F008316C5
:100C8E00031387018312031387018316031388014D
:100C9E008312031388010130831603138500831218
:100CAE0003138501243083160313980090308312AA
:100CBE000313980019308316031399000A128A1130
:100CCE0057240A128A116430F0000030F1000A1223
:100CDE008A1145240A128A11831203139F121F12BE
:100CEE009F111F145830F0000230F1000A128A11C1
:100CFE0045240A128A11831203131F0804389F0019
:100D0E005830F0000230F1000A128A1145240A12FE
:100D1E008A11831203131E08F900FA010830FE002F
:100D2E000310F90DFA0DFE0B972E7908AC007A0818
:100D3E00AD005830F0000230F1000A128A1145243D
:100D4E000A128A11831603131E08831203132C072B
:100D5E00AC002D0803182D0AAD005830F0000230FB
:100D6E00F1000A128A1145240A128A11E830F000A5
:100D7E000330F100831203132D08F301F3072C083F
:100D8E00F201F2070A128A1125250A128A11710838
:100D9E0083120313A101A1077008A001A007E83078
:100DAE00F0000330F1002D08F301F3072C08F201D7
:100DBE00F2070A128A11E8240A128A1171088312A4
:100DCE000313A301A3077008A201A2076430F00069
:100DDE000030F1002308F301F3072208F201F207B5
:100DEE000A128A11CE250A128A1171088312031370
:100DFE00A501A5077008A401A4076430F000003017
:100E0E00F1002308F301F3072208F201F2070A1298
:100E1E008A116E250A128A11710883120313A70113
:100E2E00A7077008A601A6070A30F0000030F100EF
:100E3E002708F301F3072608F201F2070A128A11B6
:100E4E00CE250A128A11710883120313A901A9076C
:100E5E007008A801A8070A30F0000030F10027083A
:100E6E00F301F3072608F201F2070A128A116E2522
:100E7E000A128A11710883120313AB01AB077008B3
:100E8E00AA01AA0780300A128A117C240A128A113A
:100E9E00E830F0000330F1000A128A1145240A12DC
:100EAE008A11831203132008303E0A128A11B224CB
:100EBE000A128A11E830F0000330F1000A128A118A
:100ECE0045240A128A11831203132408303E0A1293
:100EDE008A11B2240A128A11E830F0000330F100B0
:100EEE000A128A1145240A128A1183120313280842
:100EFE00303E0A128A11B2240A128A11E830F0002A
:100F0E000330F1000A128A1145240A128A11831243
:100F1E0003132A08303E0A128A11B2240A128A11C9
:100F2E00E830F0000330F1000A128A1145240A124B
:100F3E008A115030F000C330F1000A128A11452494
:100F4E000A128A115030F000C330F1000A128A11D1
:100F5E0045240A128A11831203132008303E990089
:100F6E00E830F0000330F1000A128A1145240A120B
:100F7E008A11831203132408303E9900E830F000E2
:100F8E000330F1000A128A1145240A128A118312C3
:100F9E0003132808303E9900E830F0000330F100CA
:100FAE000A128A1145240A128A11831203132A087F
:100FBE00303E9900E830F0000330F1000A128A1139
:100FCE0045240A128A115030F000C330F1000A1283
:100FDE008A1145240A128A115030F000C330F100F4
:100FEE000A128A1145240A128A11732E0A128A11C4
:020FFE000028C9
:02400E00723FFF
:00000001FF
