:100000000A128A11CE2D00308A000408840A820761
:1000100000346834653461347234743420346234AA
:080020006534613474340034CE
:100B9C00AA01AB0183010A128A111F2FCF308312D5
:100BAC0003138F002B308E0039309000DD2D0C1C80
:100BBC00E02DE12DDD2D383090000C100800F200F6
:100BCC007208831203138800061086100615643011
:100BDC00F0000030F1000A128A11D4250A128A1191
:100BEC008312031306110800F20072088312031318
:100BFC0088000614861006156430F0000030F100F1
:100C0C000A128A11D4250A128A11831203130611AF
:100C1C00080038300A128A11E5250A128A110C30A4
:100C2C000A128A11E5250A128A1101300A128A1158
:100C3C00E5250A128A1106300A128A11E5250A12D4
:100C4C008A110800F3000030F4000030F500412E4A
:100C5C007408730784000A128A1103200A128A117D
:100C6C000A128A11FA250A128A110130F4070318A4
:100C7C00F50A0030F5077408730784000A128A110C
:100C8C0003200A128A110038031D4D2E4E2E2E2ED3
:100C9C0008000310003003180130F600F31F572E24
:100CAC00582E602EF209F309F20A0319F30AF60121
:100CBC000314F60DF11F632E642E692EF009F10951
:100CCC00F00A0319F10A7108700403196E2E6F2EC5
:100CDC009F2EF5010314F50D7E2E01300310F00D3F
:100CEC00F10DFF3E031D742E0130F4007408F5075E
:100CFC00F11F812E822E732E71087302031D882E14
:100D0C0070087202031C8B2E8C2E922E7008F2022D
:100D1C007108031CF303F30201300310F10CF00C07
:100D2C00FF3E031D932E0130F502031D9E2E9F2EB8
:100D3C00822E7608031DA32EA82EF209F309F20ABF
:100D4C000319F30A7308F101F1077208F001F007B7
:100D5C0008000310003003180130F600F11FB72E05
:100D6C00B82EC02EF009F109F00A0319F10AF601A8
:100D7C000314F60DF31FC32EC42ECD2EF209F30966
:100D8C00F20A0319F30A0130F4007408F606003075
:100D9C00F7000030F800710870040319D62ED72E16
:100DAC000F2FF5010314F50DE62E01300310F00D95
:100DBC00F10DFF3E031DDC2E0130F4007408F50725
:100DCC00F11FE92EEA2EDB2E01300310F70DF80D82
:100DDC00FF3E031DEB2E71087302031DF72E7008E6
:100DEC007202031CFA2EFB2E022F7008F2027108FD
:100DFC00031CF303F302771401300310F10CF00C15
:100E0C00FF3E031D032F0130F502031D0E2F0F2F84
:100E1C00EA2E7608031D132F182FF709F809F70A85
:100E2C000319F80A7808F101F1077708F001F007C7
:100E3C00080083160313860183120313860183169D
:100E4C00031387018312031387018316031388018D
:100E5C008312031388010A128A110F260A128A11AF
:100E6C0083160313811683120313810180300A1237
:100E7C008A11E5250A128A1101300A128A112826D4
:100E8C000A128A11003083120313AA000030AB003F
:100E9C002B08803AFE0080307E02031D572F6530F0
:100EAC002A02031C5A2F5B2F5C2F762F0A128A11F1
:100EBC00D4250A128A11013083120313AA070318CE
:100ECC00AB0A0030AB072B08803AFE0080307E0264
:100EDC00031D722F65302A02031C752F762F5C2F91
:100EEC00831203130108F900FA017908A8007A08A3
:100EFC00A9006430F0000030F1002908F301F30779
:100F0C002808F201F2070A128A11AF260A128A1176
:100F1C00710883120313A101A1077008A001A00797
:100F2C006430F0000030F1002908F301F3072808C1
:100F3C00F201F2070A128A114F260A128A1171085D
:100F4C0083120313A701A7077008A601A6070A308E
:100F5C00F0000030F1002708F301F3072608F20136
:100F6C00F2070A128A11AF260A128A11710883122B
:100F7C000313A301A3077008A201A2070A30F00013
:100F8C000030F1002708F301F3072608F201F207FD
:100F9C000A128A114F260A128A117108831203133E
:100FAC00A501A5077008A401A407C0300A128A1174
:100FBC00E5250A128A11831203132008303E0A1207
:100FCC008A11FA250A128A11831203132208303E61
:100FDC000A128A11FA250A128A11831203132408A1
:100FEC00303E0A128A11FA250A128A113C2F0A1273
:040FFC008A1100282E
:00000001FF
