:060000000A128A11DF2E36
:100DBE0083010A128A11F52EE42E0130F002003062
:100DCE00031CF103F102FF307106031DF02EFF30FC
:100DDE007006031DF32EF42EE42E08008316031363
:100DEE008601831203138601013086005030F00015
:100DFE00C330F1000A128A11E3260A128A11023058
:100E0E008312031386005030F000C330F1000A1233
:100E1E008A11E3260A128A11043083120313860004
:100E2E005030F000C330F1000A128A11E3260A1284
:100E3E008A1108308312031386005030F000C3303D
:100E4E00F1000A128A11E3260A128A111030831257
:100E5E00031386005030F000C330F1000A128A11DD
:100E6E00E3260A128A1120308312031386005030B3
:100E7E00F000C330F1000A128A11E3260A128A1119
:100E8E0040308312031386005030F000C330F1005F
:100E9E000A128A11E3260A128A1180308312031372
:100EAE0086005030F000C330F1000A128A11E3269A
:100EBE000A128A1140308312031386005030F0005C
:100ECE00C330F1000A128A11E3260A128A11203069
:100EDE008312031386005030F000C330F1000A1263
:100EEE008A11E3260A128A11103083120313860028
:100EFE005030F000C330F1000A128A11E3260A12B4
:100F0E008A1108308312031386005030F000C3306C
:100F1E00F1000A128A11E3260A128A110430831292
:100F2E00031386005030F000C330F1000A128A110C
:100F3E00E3260A128A110230831203138600503000
:100F4E00F000C330F1000A128A11E3260A128A1148
:100F5E0001308312031386005030F000C330F100CD
:100F6E000A128A11E3260A128A11831203138601CA
:100F7E005030F000C330F1000A128A11E3260A1233
:100F8E008A1118308312031386005030F000C330DC
:100F9E00F1000A128A11E3260A128A1124308312F2
:100FAE00031386005030F000C330F1000A128A118C
:100FBE00E3260A128A114230831203138600503040
:100FCE00F000C330F1000A128A11E3260A128A11C8
:100FDE0081308312031386005030F000C330F100CD
:100FEE000A128A11E3260A128A11FB2E0A128A119C
:020FFE000028C9
:00000001FF
