:100000000A128A119D2A00308A000408840A820795
:10001000003463346F346E346E3465346334743456
:1000200069346E3467342E342E342E342E342E340C
:100030002E342E34003463346F346E346E346534B1
:1000400063347434653464342E342E342E342E34B8
:100050002E342E342E34003449344E345334453447
:1000600052345434203454344834453420344334E6
:100070004F3449344E3400346434693461346C3460
:10008000203474346834653420346E3475346D34FF
:100090006234653472340034573445344C3443345C
:0800A0004F344D3445340034A7
:10052A0064008001840A0406031900340406962A2A
:10053A00F901FA0183132030840032300A128A1139
:10054A0095220A128A1183010A128A11F82BAD2AFE
:10055A000130F0020030031CF103F102FF30710692
:10056A00031DB92AFF307006031DBC2ABD2AAD2A15
:10057A000800F2007208831203138800071087101C
:10058A0007156430F0000030F1000A128A11AC221B
:10059A000A128A118312031307110800F200720863
:1005AA008312031388000714871007156430F000BC
:1005BA000030F1000A128A11AC220A128A1183123F
:1005CA0003130711080038300A128A11BE220A12D0
:1005DA008A1106300A128A11BE220A128A110C30B6
:1005EA000A128A11BE220A128A1101300A128A11CB
:1005FA00BE220A128A110800F3000030F40000300B
:10060A00F5001A2B7408730784000A128A11032052
:10061A000A128A110A128A11D3220A128A11013085
:10062A00F4070318F50A0030F50774087307840005
:10063A000A128A1103200A128A110038031D262B76
:10064A00272B072B08000310003003180130F6008F
:10065A00F31F302B312B392BF209F309F20A031954
:10066A00F30AF6010314F60DF11F3C2B3D2B422B26
:10067A00F009F109F00A0319F10A71087004031963
:10068A00472B482B782BF5010314F50D572B013016
:10069A000310F00DF10DFF3E031D4D2B0130F40048
:1006AA007408F507F11F5A2B5B2B4C2B7108730248
:1006BA00031D612B70087202031C642B652B6B2BC4
:1006CA007008F2027108031CF303F30201300310ED
:1006DA00F10CF00CFF3E031D6C2B0130F502031DDB
:1006EA00772B782B5B2B7608031D7C2B812BF20949
:1006FA00F309F20A0319F30A7308F101F107720800
:10070A00F001F00708000310003003180130F6006A
:10071A00F11F902B912B992BF009F109F00A03197B
:10072A00F10AF6010314F60DF31F9C2B9D2BA62B41
:10073A00F209F309F20A0319F30A0130F400740802
:10074A00F6060030F7000030F8007108700403194B
:10075A00AF2BB02BE82BF5010314F50DBF2B01309D
:10076A000310F00DF10DFF3E031DB52B0130F4000F
:10077A007408F507F11FC22BC32BB42B01300310E9
:10078A00F70DF80DFF3E031DC42B71087302031DFC
:10079A00D02B70087202031CD32BD42BDB2B7008CE
:1007AA00F2027108031CF303F302771401300310F9
:1007BA00F10CF00CFF3E031DDC2B0130F502031D8A
:1007CA00E72BE82BC32B7608031DEC2BF12BF7093B
:1007DA00F809F70A0319F80A7808F101F107770806
:1007EA00F001F0070800831603138801831203132C
:1007FA0088018316031387018312031387010730C5
:10080A008316031386008312031386010A128A11C0
:10081A00E8220A128A116430F0000030F1000A124C
:10082A008A11AC220A128A110030F9000030FA004B
:10083A0080300A128A11BE220A128A118312031305
:10084A00871D282C292C622C44300A128A11012374
:10085A000A128A111030F0002730F1000A128A11A8
:10086A00AC220A128A111030F0002730F1000A1265
:10087A008A11AC220A128A1101300A128A11BE2286
:10088A000A128A1180300A128A11BE220A128A11A9
:10089A0024300A128A1101230A128A115030F000F8
:1008AA00C330F1000A128A11AC220A128A110130ED
:1008BA000A128A11BE220A128A1183120313071E10
:1008CA00672C682C8E2C34300A128A1101230A12E2
:1008DA008A1101300A128A11BE220A128A110A12D8
:1008EA008A11AA250A128A1101300A128A11BE2215
:1008FA000A128A1101300A128A1101230A128A1174
:10090A005030F000C330F1000A128A11AC220A12E8
:10091A008A115030F000C330F1000A128A11AC2259
:10092A000A128A1101300A128A11BE220A128A1187
:10093A0083120313871EA22CA32C392D01300A120D
:10094A008A11BE220A128A1113300A128A1101234D
:10095A000A128A115030F000C330F1000A128A11CB
:10096A00AC220A128A1101300A128A11BE220A1214
:10097A008A11003083120313BA000030BB003B080F
:10098A00803AFE0080307E02031DCD2C3C303A02B4
:10099A00031CD02CD12CD22C382D0A30F000003078
:1009AA00F100831203133B08F301F3073A08F2013B
:1009BA00F2070A128A1188230A128A11710883120D
:1009CA000313B301B3077008B201B2070A30F0008B
:1009DA000030F1003B08F301F3073A08F201F2078D
:1009EA000A128A1128230A128A1171088312031320
:1009FA00B501B5077008B401B40780300A128A112C
:100A0A00BE220A128A11831203133208303E0A12D6
:100A1A008A11D3220A128A11831203133408303E30
:100A2A000A128A11D3220A128A115030F000C330F6
:100A3A00F1000A128A11AC220A128A1101308312B9
:100A4A000313BA070318BB0A0030BB073B08803AF6
:100A5A00FE0080307E02031D342D3C303A02031C16
:100A6A00372D382DD22CA32C83120313071F3E2DAA
:100A7A003F2DA62D0030BC000030BD003D08803A55
:100A8A00FE0080307E02031D4C2D3C303C02031CCC
:100A9A004F2D502D512DA62D0A30F0000030F100B7
:100AAA00831203133D08F301F3073C08F201F2072E
:100ABA000A128A1188230A128A11710883120313EF
:100ACA00B701B7077008B601B6070A30F000003060
:100ADA00F1003D08F301F3073C08F201F2070A129C
:100AEA008A1128230A128A11710883120313B90181
:100AFA00B9077008B801B8073608303E0A128A11D9
:100B0A00D3220A128A11831203133808303E0A12BA
:100B1A008A11D3220A128A11013083120313BC07E5
:100B2A000318BD0A0030BD073D08803AFE00803038
:100B3A007E02031DA22D3C303C02031CA52DA62DCE
:100B4A00512D192C0A128A110028831203138615B3
:100B5A00061286120613061CB32DB42DDF2D313072
:100B6A000A128A11D3220A128A117908F30073072A
:100B7A00203E8400013083138000840A0030800004
:100B8A007908013EF9007A080318013E003EFA008E
:100B9A005030F000C330F1000A128A11AC220A1256
:100BAA008A115030F000C330F1000A128A11AC22C7
:100BBA000A128A1183120313861CE42DE52D102EC6
:100BCA0032300A128A11D3220A128A117908F300E2
:100BDA007307203E8400023083138000840A0030A9
:100BEA0080007908013EF9007A080318013E003EA8
:100BFA00FA005030F000C330F1000A128A11AC2218
:100C0A000A128A115030F000C330F1000A128A1118
:100C1A00AC220A128A1183120313061D152E162EF0
:100C2A00412E33300A128A11D3220A128A11790804
:100C3A00F3007307203E8400033083138000840A84
:100C4A00003080007908013EF9007A080318013E55
:100C5A00003EFA005030F000C330F1000A128A1147
:100C6A00AC220A128A115030F000C330F1000A1285
:100C7A008A11AC220A128A118312031386110616EC
:100C8A0086120613061C4A2E4B2E762E34300A1272
:100C9A008A11D3220A128A117908F3007307203EB7
:100CAA008400043083138000840A003080007908AD
:100CBA00013EF9007A080318013E003EFA0050305E
:100CCA00F000C330F1000A128A11AC220A128A110A
:100CDA005030F000C330F1000A128A11AC220A1215
:100CEA008A1183120313861C7B2E7C2EA72E353085
:100CFA000A128A11D3220A128A117908F300730799
:100D0A00203E8400053083138000840A003080006E
:100D1A007908013EF9007A080318013E003EFA00FC
:100D2A005030F000C330F1000A128A11AC220A12C4
:100D3A008A115030F000C330F1000A128A11AC2235
:100D4A000A128A1183120313061DAC2EAD2ED82E59
:100D5A0036300A128A11D3220A128A117908F3004C
:100D6A007307203E8400063083138000840A003013
:100D7A0080007908013EF9007A080318013E003E16
:100D8A00FA005030F000C330F1000A128A11AC2286
:100D9A000A128A115030F000C330F1000A128A1187
:100DAA00AC220A128A1183120313861106128616BE
:100DBA000613061CE12EE22E0D2F37300A128A1175
:100DCA00D3220A128A117908F3007307203E84009D
:100DDA00073083138000840A003080007908013EBE
:100DEA00F9007A080318013E003EFA005030F0007C
:100DFA00C330F1000A128A11AC220A128A11503049
:100E0A00F000C330F1000A128A11AC220A128A11C8
:100E1A0083120313861C122F132F3E2F38300A1207
:100E2A008A11D3220A128A117908F3007307203E25
:100E3A008400083083138000840A00308000790817
:100E4A00013EF9007A080318013E003EFA005030CC
:100E5A00F000C330F1000A128A11AC220A128A1178
:100E6A005030F000C330F1000A128A11AC220A1283
:100E7A008A1183120313061D432F442F6F2F393013
:100E8A000A128A11D3220A128A117908F300730707
:100E9A00203E8400093083138000840A00308000D9
:100EAA007908013EF9007A080318013E003EFA006B
:100EBA005030F000C330F1000A128A11AC220A1233
:100ECA008A115030F000C330F1000A128A11AC22A4
:100EDA000A128A1183120313861106128612061742
:100EEA00061C782F792F992F2A300A128A11D322B9
:100EFA000A128A117908013EF9007A080318013E9C
:100F0A00003EFA005030F000C330F1000A128A1194
:100F1A00AC220A128A115030F000C330F1000A12D2
:100F2A008A11AC220A128A1183120313861C9E2F7D
:100F3A009F2FCA2F30300A128A11D3220A128A111D
:100F4A007908F3007307203E840000308313800081
:100F5A00840A003080007908013EF9007A080318F3
:100F6A00013E003EFA005030F000C330F1000A1290
:100F7A008A11AC220A128A115030F000C330F100F3
:100F8A000A128A11AC220A128A1183120313061D4D
:100F9A00CF2FD02FF02F23300A128A11D3220A1210
:100FAA008A117908013EF9007A080318013E003EC9
:100FBA00FA005030F000C330F1000A128A11AC2254
:100FCA000A128A115030F000C330F1000A128A1155
:100FDA00AC220A128A117A08803AFE0080307E0218
:100FEA00031DF92F0A307902031CFC2FFD2FFE2F57
:060FFA00FF2FAA2D0800E4
:00000001FF
