:060000000A128A115B2FB9
:100E70007E088A007F08820038270A128A118000C3
:100E8000840A04087D0603190034FF0A0319FE0AC8
:100E90003C2F4A2F0130F4020030031CF503F50209
:100EA000FF307506031D562FFF307406031D592FA2
:100EB0005A2F4A2F0800F001F101F201F3018313C8
:100EC0004830FD000730FE007130FF002030840004
:100ED0000A128A113C270A128A1183010A128A1106
:100EE000992F3F340034063400345B3400344F34DF
:100EF0000034663400346D3400347D3400340734FB
:100F000000347F3400346F3400346F3400347F3465
:100F10000034073400347D3400346D3400346634DA
:100F200000344F3400345B340034063400343F3432
:100F300000348316031386018312031386010330E2
:100F4000831603138700831203138701071CA92F3D
:100F5000AA2FD02F7108803AFE0080307E02031D38
:100F6000B32F093070020318B62FB72FD02F0130DE
:100F7000F0070318F10A0030F1077008F600760751
:100F8000203E840083130008831203138600503030
:100F9000F400C330F5000A128A1149270A128A1197
:100FA00083120313871CD52FD62FFC2F7308803A8A
:100FB000FE0080307E02031DDF2F0930720203180D
:100FC000E22FE32FFC2F0130F2070318F30A003061
:100FD000F3077208F6007607343E84008313000896
:100FE0008312031386005030F400C330F5000A1258
:100FF0008A1149270A128A11A62F0A128A1100287B
:00000001FF
